S01B000041546D656761333238705F636F6D706C6574652E7372656315
S11300000C9476000C94A7000C94E5000C949300D7
S11300100C9493000C9493000C9493000C94930010
S11300200C9493000C9493000C9493000C94930000
S11300300C9493000C9493000C9493000C949300F0
S11300400C9493000C9493000C94DA0C0C9493008D
S11300500C9493000C9493000C9493000C949300D0
S11300600C944D020C9493004D08CD07D307D90787
S1130070DF07E507F007FB0706080C081708220846
S11300802D08490833083E08BD0D891159118911FD
S11300908911F90E8911F6108911891189118911B3
S11300A089118911681189118911771189118911AF
S11300B0891189118911891189118911891189116C
S11300C08911891189118911BD0D8911591189115C
S11300D08911F90E891186118911891189118911E2
S11300E089118911681189118911771111241FBE91
S11300F0CFEFD8E0DEBFCDBF17E0A0E0B1E0E0ED88
S1130100FEE202C005900D92A43EB107D9F728E0A3
S1130110A4EEB7E001C01D92A732B207E1F70E9436
S113012098110C9466170C9400009AB19B7F9AB9AD
S1130130E9E6F0E090819C7F90839081892B808315
S11301408CB381608CBB8DB381608DBB08951F928D
S11301500F920FB60F9211242F933F934F935F93F7
S11301606F937F938F939F93AF93BF93EF93FF937B
S11301702FEF80E792E0215080409040E1F700C0EB
S113018000004A990EC06091F4077091F5078091C0
S1130190F6079091F7070E94F4008EE091E00E9428
S11301A06E148CB381608CBBFF91EF91BF91AF91C2
S11301B09F918F917F916F915F914F913F912F917B
S11301C00F900FBE0F901F9018951F920F920FB6AD
S11301D00F9211248F938CB382608CBB8F910F90FC
S11301E00FBE0F901F901895CF92DF92EF92FF925F
S11301F06B017C019B01AC010E947C04A701960168
S1130200C701B6010E94B20320E030E044E353EC9E
S1130210C701B6010E943C05FF90EF90DF90CF909C
S1130220089580E090E0A4EBB2E48093F807909303
S1130230F907A093FA07B093FB0780E090E0A4EBE2
S1130240B2EC8093E9079093EA07A093EB07B0938D
S1130250EC071092F4071092F5071092F60710922B
S1130260F7070E9494030E9454040E941E056091A3
S1130270F4077091F5078091F6079091F7070E94B3
S1130280F40008958F929F92AF92BF92CF92DF9223
S1130290EF92FF92CF93C82FC090E907D090EA075E
S11302A0E090EB07F090EC07A70196016091F80746
S11302B07091F9078091FA079091FB070E94AD11A4
S11302C020E030E048EC52E40E941F124B015C0134
S11302D06C2F70E080E090E00E94C912A5019401A7
S11302E00E947E139B01AC01C701B6010E94AE11AE
S11302F0CF91FF90EF90DF90CF90BF90AF909F9001
S11303008F9008950E94420120E030E044E353ECD2
S11303100E947C04089520E030E044E353EC0E9402
S11303207C0408950E9442019B01AC0160E070E0EE
S113033084E393EC0E947C0408959B01AC0160E08B
S113034070E084E393EC0E947C0408950E944201CF
S113035020E030E044E353EC0E94B203089520E02F
S113036030E044E353EC0E94B20308950E9442013A
S11303709B01AC0160E070E084E393EC0E94B20363
S113038008959B01AC0160E070E084E393EC0E946B
S1130390B20308950E94420120E030E044E353ECAC
S11303A00E943C05089520E030E044E353EC0E94B1
S11303B03C0508956093FE07880F8093BA008091EE
S11303C0FE07846C8093BC0008958093BB0080E496
S11303D0689FB00111248091FE07682B64686093C4
S11303E0BC008091BC008823E4F78091B900887F29
S11303F090E050E08417950711F080E0089581E0C3
S1130400089520E4829FC00111249091FE07892B56
S113041084688093BC008091BC008823E4F78091B9
S1130420B900887F90E070E086179707A9F580915E
S1130430BB008A3071F018F481111CC00AC08D30E1
S113044041F08A33B9F481E080931D081092E407E7
S1130450089580911D08882351F0E091E407F0E0AD
S1130460E150F84F10821092E4070E94D2021092D9
S11304701D08089580911D08882371F0E091E40718
S1130480EE3150F481E08E0F8093E407F0E0809128
S1130490BB00E150F84F808308951F920F920FB66E
S11304A00F9211242F933F934F935F936F937F93F6
S11304B08F939F93AF93BF93EF93FF938091B90072
S11304C0887F8038A1F028F4882381F1803641F0B8
S11304D034C0883AC9F0883B01F1803A71F50EC006
S11304E06091B900687F81E00E94010226C060919A
S11304F0B900687F81E00E9401021FC0ECEBF0E0CC
S113050080818068808319C04091B9008091BB00CC
S1130510487F61E00E94E50110C04091B9008091DC
S1130520BB00487F61E00E94E50107C085E191E0DE
S11305300E946E1485EC8093BC00FF91EF91BF91F3
S1130540AF919F918F917F916F915F914F913F9167
S11305502F910F900FBE0F901F901895682F70E089
S11305609B012F5F3F4F80E016C02093E407F90101
S1130570E150F84F9081492F50E0405351094A30DF
S1130580510578F4880F482F440F440F840F890FC6
S113059080532F5F3F4FAB014C5F5F4F42175307B0
S11305A024F70895E091E407F0E0E150F84F8081EA
S11305B0823461F130F4882309F49CC0813449F019
S11305C0AEC0843409F45CC0F0F1853409F475C01C
S11305D0A6C08DE191E09F938F930E94581480915F
S11305E0E4070E94AE0280931E081F928F9385E257
S11305F091E09F938F930E9458140E94D2020F900F
S11306000F900F900F900F900F9008958DE291E04E
S11306109F938F930E9458148091E4070E94AE0226
S11306208093EF071F928F9385E291E09F938F93BE
S11306300E9458140E94D2020F900F900F900F90B6
S11306400F900F90089585E391E09F938F930E94FC
S113065058148091E4070E94AE028093E6071F922B
S11306608F9385E291E09F938F930E9458140E9488
S1130670D2020F900F900F900F900F900F9008954B
S11306808DE391E09F938F930E9458148091E40727
S11306900E94AE028093FD071F928F9385E291E042
S11306A09F938F930E9458140E94D2020F900F9030
S11306B00F900F900F900F90089585E491E09F9311
S11306C08F930E9458148091E4070E94AE02809395
S11306D0E5071F928F9385E291E09F938F930E9489
S11306E058140E94D2020F900F900F900F900F9009
S11306F00F90089580911E080E9482018091EF0757
S11307000E9492018091E6070E94A6018091FD0754
S11307100E94B6018091E5070E94CA0108958DE404
S113072091E00E946E14089580E090E0A0E8B1E4A6
S11307308093F0079093F107A093F207B093F30727
S113074083E00E94DE056091F0077091F1078091CB
S1130750F2079091F3070E94680662E082E00E942B
S1130760DA0608954F925F926F927F928F929F92D2
S1130770AF92BF92CF92DF92EF92FF922B013C0196
S113078049015A01C090E907D090EA07E090EB07CD
S1130790F090EC079B01AC01C701B6010E941A124C
S11307A018162CF12091F8073091F9074091FA07B7
S11307B05091FB07C301B2010E941A12181604F1EA
S11307C020E030E044EB52E4C301B2010E94AE11D8
S11307D02FED3CEB4AE15CE30E947E1323E333E319
S11307E043E35FE30E94AE112B013C0111C00F2EC5
S11307F0412C512CF0E86F2EFFEB7F2EF02D08C01A
S11308000F2E412C512CF0E86F2EFFEB7F2EF02D94
S1130810A5019401C701B6010E941A1218162CF101
S11308202091F8073091F9074091FA075091FB079E
S1130830C501B4010E941A121816E4F020E030E059
S113084044EB52E4C501B4010E94AE112FED3CEB20
S11308504AE15CE30E947E1323E333E343E35FE373
S11308600E94AE119B01AC0109C020E030E040E8D9
S11308705FEB04C020E030E040E85FEBC301B2016D
S11308800E944F07FF90EF90DF90CF90BF90AF9002
S11308909F908F907F906F905F904F90089583E624
S11308A091E00E946E14089580E090E0A0EAB1E423
S11308B08093F0079093F107A093F207B093F307A6
S11308C08EE00E94AA076091F0077091F107809171
S11308D0F2079091F3070E94A2086091F0077091CB
S11308E0F1078091F2079091F3070E94900962E06A
S11308F082E00E94140908954F925F926F927F9252
S11309008F929F92AF92BF92CF92DF92EF92FF921B
S11309102B013C0149015A01C090E907D090EA0734
S1130920E090EB07F090EC079B01AC01C701B60126
S11309300E941A1218162CF12091F8073091F90729
S11309404091FA075091FB07C301B2010E941A12A9
S1130950181604F120E030E044EB52E4C301B20184
S11309600E94AE112FED3CEB4AE15CE30E947E1342
S113097023E333E343E35FE30E94AE112B013C0125
S113098011C00F2E412C512CF0E86F2EFFEB7F2E5F
S1130990F02D08C00F2E412C512CF0E86F2EFFEBE8
S11309A07F2EF02DA5019401C701B6010E941A12F1
S11309B018162CF12091F8073091F9074091FA07A5
S11309C05091FB07C501B4010E941A121816E4F0F5
S11309D020E030E044EB52E4C501B4010E94AE11C2
S11309E02FED3CEB4AE15CE30E947E1323E333E307
S11309F043E35FE30E94AE119B01AC0109C020E018
S1130A0030E040E85FEB04C020E030E040E85FEB1A
S1130A10C301B2010E94D209FF90EF90DF90CF9002
S1130A20BF90AF909F908F907F906F905F904F900A
S1130A3008958CE891E00E946E14089580E090E09F
S1130A40A0E8B1E48093F0079093F107A093F20734
S1130A50B093F30783E00E94510A6091F00770910C
S1130A60F1078091F2079091F3070E940B0B60E06D
S1130A7082E00E949F0B08954F925F926F927F9243
S1130A808F929F92AF92BF92CF92DF92EF92FF929A
S1130A902B013C0149015A01C090E907D090EA07B3
S1130AA0E090EB07F090EC079B01AC01C701B601A5
S1130AB00E941A1218162CF12091F8073091F907A8
S1130AC04091FA075091FB07C301B2010E941A1228
S1130AD0181604F120E030E044EB52E4C301B20103
S1130AE00E94AE112FED3CEB4AE15CE30E947E13C1
S1130AF023E333E343E35FE30E94AE112B013C01A4
S1130B0011C00F2E412C512CF0E86F2EFFEB7F2EDD
S1130B10F02D08C00F2E412C512CF0E86F2EFFEB66
S1130B207F2EF02DA5019401C701B6010E941A126F
S1130B3018162CF12091F8073091F9074091FA0723
S1130B405091FB07C501B4010E941A121816E4F073
S1130B5020E030E044EB52E4C501B4010E94AE1140
S1130B602FED3CEB4AE15CE30E947E1323E333E385
S1130B7043E35FE30E94AE119B01AC0109C020E096
S1130B8030E040E85FEB04C020E030E040E85FEB99
S1130B90C301B2010E94270CFF90EF90DF90CF9029
S1130BA0BF90AF909F908F907F906F905F904F9089
S1130BB0089585EB91E00E946E140895CF93C82F99
S1130BC01F928F938FEE91E09F938F930E945814FE
S1130BD084B58C7F84BD85B5877F85BD0F900F90CC
S1130BE00F900F90C23089F028F4CC2341F1C1302A
S1130BF041F021C0C53089F0C730B1F0C330D9F419
S1130C0008C084B5816084BD1AC084B5826084BD87
S1130C1016C084B5836084BD12C084B5816084BD70
S1130C2085B5886085BD0BC084B5836084BD85B5FA
S1130C30886085BD04C084E092E00E946E14CF9168
S1130C400895CF93DF93EC01DF93CF9382E192E099
S1130C509F938F930E94581485B5887F85BD0F900C
S1130C600F900F900F90C830D105D9F028F4209739
S1130C7079F0219791F025C0C11581E0D807C9F01A
S1130C80C11584E0D807C9F0C034D105D1F40DC032
S1130C9082E292E00E946E1418C085B5816085BD21
S1130CA014C085B5826085BD10C085B5836085BDDF
S1130CB00CC085B5846085BD08C085B5856085BDDB
S1130CC004C08FE292E00E946E14DF91CF910895E8
S1130CD0CF92DF92EF92FF921092200810921F0899
S1130CE020E030E04AE754E40E941F126B017C01CB
S1130CF02DEB37E346E857E30E941A1218163CF02E
S1130D0081E090E09093200880931F0848C02DEB69
S1130D1037E346E059E3C701B6010E941A121816D8
S1130D203CF088E090E09093200880931F0837C03F
S1130D302DEB37E346E85AE3C701B6010E941A12C5
S1130D4018163CF080E490E09093200880931F08EC
S1130D5026C02DEB37E346E85BE3C701B6010E94EA
S1130D601A1218163CF080E091E0909320088093CA
S1130D701F0815C02DEB37E346E85CE3C701B60155
S1130D800E941A1218163CF080E094E09093200818
S1130D9080931F0804C08CE592E00E946E14809139
S1130DA01F08909120080E942106FF90EF90DF9089
S1130DB0CF900895CF93C62F94B59F7394BD9AB1E5
S1130DC09F7B9AB9813059F028F0823099F08330B2
S1130DD0E1F026C080E792E00E946E1425C08AE705
S1130DE092E00E946E148AB180648AB984B58064EA
S1130DF084BD1AC087E892E00E946E148AB18064B0
S1130E008AB984B5806884BD0FC083E992E00E94EA
S1130E106E148AB180648AB984B5806C84BD04C0C0
S1130E208DE992E00E946E14C13059F028F0C2306E
S1130E3099F0C330E1F026C08BEB92E00E946E146F
S1130E4025C087EC92E00E946E148AB180628AB950
S1130E5084B5806184BD1AC086ED92E00E946E1450
S1130E608AB180628AB984B5806284BD0FC084EE81
S1130E7092E00E946E148AB180628AB984B580635C
S1130E8084BD04C080EF92E00E946E14CF91089557
S1130E908F3F09F087BD6F3F09F068BD08958F92B9
S1130EA09F92AF92BF92CF92DF92EF92FF92CF9335
S1130EB04B015C0169017A0120E030E0A9010E9444
S1130EC01A128823C4F020E030E040E85FE3C50153
S1130ED0B4010E94AD1120E030E048E851E40E94E2
S1130EE07E1320E030E040E651E40E94AE110E94FF
S1130EF09812C62F01C0CFEF20E030E0A901C7014E
S1130F00B6010E941A128823BCF020E030E040E8C9
S1130F105FE3C701B6010E94AD1120E030E048E86C
S1130F2051E40E947E1320E030E040E651E40E9448
S1130F30AE110E94981201C06FEF8C2F0E944807D7
S1130F40CF91FF90EF90DF90CF90BF90AF909F90A4
S1130F508F900895CF93C82F1F928F9380E193E0D1
S1130F609F938F930E945814E0E8F0E080818C7F77
S1130F708083E1E8F0E08081877E80830F900F908A
S1130F800F900F908C2F90E08031910508F081C074
S1130F90FC01EC5CFF4F0C942C14E0E8F0E0808141
S1130FA0816080837AC0E0E8F0E0808182608083A1
S1130FB074C0E0E8F0E08081836080836EC0E1E883
S1130FC0F0E080818860808368C0E0E8F0E08081A0
S1130FD081608083E1E8F0E08081886080835DC087
S1130FE0E0E8F0E0808182608083E1E8F0E08081E5
S1130FF08860808352C0E0E8F0E080818360808371
S1131000E1E8F0E080818860808347C0E1E8F0E0B7
S113101080818061808341C0E0E8F0E0808181606C
S11310208083E1E8F0E080818061808336C0E0E87D
S1131030F0E0808182608083E1E8F0E0808180617B
S113104080832BC0E0E8F0E0808183608083E1E866
S1131050F0E080818061808320C0E1E8F0E080815D
S1131060886180831AC0E0E8F0E080818260808338
S1131070E1E8F0E08081886180830FC0E0E8F0E07F
S1131080808183608083E1E8F0E0808188618083EF
S113109004C084E092E00E946E14CF910895CF932F
S11310A0DF93EC01DF93CF9382E192E09F938F93E0
S11310B00E945814E1E8F0E08081887F80830F90DB
S11310C00F900F900F90C830D105E9F028F42097C5
S11310D079F0219791F02FC0C11581E0D807F9F07C
S11310E0C11584E0D80709F1C034D10521F511C038
S11310F085E293E00E946E1422C0E1E8F0E0808172
S1131100816080831CC0E1E8F0E08081826080839C
S113111016C0E1E8F0E080818360808310C0E1E8DC
S1131120F0E08081846080830AC0E1E8F0E080819F
S11311308560808304C082E393E00E946E14DF9193
S1131140CF910895CF92DF92EF92FF921092E80729
S11311501092E70720E030E04AE754E40E941F12AF
S11311606B017C012DEB37E346E85BE30E941A1226
S113117018163CF081E090E09093E8078093E7072D
S113118048C02DEB37E346E05DE3C701B6010E949A
S11311901A1218163CF088E090E09093E8078093C8
S11311A0E70737C02DEB37E346E85EE3C701B60136
S11311B00E941A1218163CF080E490E09093E8071D
S11311C08093E70726C02DEB37E346E85FE3C701CA
S11311D0B6010E941A1218163CF080E091E0909338
S11311E0E8078093E70715C02DEB37E346E850E4A2
S11311F0C701B6010E941A1218163CF080E094E070
S11312009093E8078093E70704C08CE592E00E947E
S11312106E148091E7079091E8070E944F08FF90B1
S1131220EF90DF90CF900895CF93C62FE0E8F0E0E1
S113123090819F73908394B19D7F94B9813059F0CC
S113124028F08230A9F0833001F12CC08FE593E0BF
S11312500E946E142BC089E693E00E946E1484B140
S1131260826084B9E0E8F0E08081806480831EC0FD
S113127086E793E00E946E1484B1826084B9E0E84A
S1131280F0E080818068808311C082E893E00E944E
S11312906E1484B1826084B9E0E8F0E08081806CEF
S11312A0808304C08CE893E00E946E14C13059F02E
S11312B028F0C230A9F0C33001F12CC085EA93E0D4
S11312C00E946E142BC081EB93E00E946E1484B1D3
S11312D0846084B9E0E8F0E08081806180831EC08E
S11312E080EC93E00E946E1484B1846084B9E0E8D9
S11312F0F0E080818062808311C08EEC93E00E94D4
S11313006E1484B1846084B9E0E8F0E08081806385
S1131310808304C08AED93E00E946E14CF910895F7
S1131320CF92DF92EF92FF9220E030E04AE754E45C
S11313300E941F126B017C012091E7073091E8079E
S113134040E050E060E074E284EF90E00E940D140D
S1131350CA01B9010E94C912A70196010E947E1315
S113136020E030E040E85FE30E94AE110E94981252
S11313707093870060938600FF90EF90DF90CF908A
S113138008958F3F2FEF920721F090938900809367
S113139088006F3F8FEF780721F070938B00609384
S11313A08A0008958F929F92AF92BF92CF92DF925C
S11313B0EF92FF92CF93DF934B015C0169017A01B5
S11313C020E030E0A9010E941A12882344F120E0B1
S11313D030E04AE754E4C501B4010E941F124B01F6
S11313E05C012091E7073091E80740E050E060E0BD
S11313F074E284EF90E00E940D14CA01B9010E94C6
S1131400C912A50194010E947E1320E030E040E857
S11314105FE30E94AE110E949812EB0102C0CFEF6D
S1131420DFEF20E030E0A901C701B6010E941A12E3
S113143088233CF120E030E04AE754E4C701B601D8
S11314400E941F126B017C012091E7073091E8078D
S113145040E050E060E074E284EF90E00E940D14FC
S1131460CA01B9010E94C912A70196010E947E1304
S113147020E030E040E85FE30E94AE110E94981241
S113148002C06FEF7FEFCE010E94C109DF91CF91BF
S1131490FF90EF90DF90CF90BF90AF909F908F9090
S11314A00895CF93C82F1F928F9383EF93E09F9358
S11314B08F930E945814E0EBF0E080818C7F80834E
S11314C0E1EBF0E08081877F80830F900F900F9095
S11314D00F90C23099F028F4CC23B1F1C13041F01F
S11314E02FC0C530B9F0C73001F1C33049F50CC085
S11314F0E0EBF0E080818160808326C0E0EBF0E0E7
S113150080818260808320C0E0EBF0E08081836092
S113151080831AC0E0EBF0E0808181608083E1EB9E
S1131520F0E08081886080830FC0E0EBF0E0808190
S113153083608083E1EBF0E080818860808304C075
S113154084E092E00E946E14CF910895CF93DF93CC
S1131550EC01DF93CF9382E192E09F938F930E94FB
S11315605814E1EBF0E08081887F80830F900F9026
S11315700F900F90C032D10549F138F4C130D10534
S1131580C9F098F02897E1F03FC0C038D10551F177
S113159020F4C034D10501F137C0C11581E0D8076A
S11315A039F1C115D44051F12FC087E094E00E9475
S11315B06E142EC0E1EBF0E080818160808328C04E
S11315C0E1EBF0E080818260808322C0E1EBF0E017
S11315D08081836080831CC0E1EBF0E080818460C3
S11315E0808316C0E1EBF0E080818560808310C0C9
S11315F0E1EBF0E08081866080830AC0E1EBF0E0FB
S113160080818760808304C088E194E00E946E1426
S1131610DF91CF910895CF92DF92EF92FF921092D3
S1131620EE071092ED0720E030E04AE754E40E9410
S11316301F126B017C012DEB37E346E857E30E9450
S11316401A1218163CF081E090E09093EE07809314
S1131650ED076AC02DEB37E346E059E3C701B60155
S11316600E941A1218163CF088E090E09093EE075E
S11316708093ED0759C02DEB37E346E05AE3C701E9
S1131680B6010E941A1218163CF080E290E0909382
S1131690EE078093ED0748C02DEB37E346E85AE3A5
S11316A0C701B6010E941A1218163CF080E490E0BB
S11316B09093EE078093ED0737C02DEB37E346E0B8
S11316C05BE3C701B6010E941A1218163CF080E8C9
S11316D090E09093EE078093ED0726C02DEB37E35F
S11316E046E85BE3C701B6010E941A1218163CF0E3
S11316F080E091E09093EE078093ED0715C02DEB09
S113170037E346E85CE3C701B6010E941A121816D3
S11317103CF080E094E09093EE078093ED0704C0E2
S11317208CE592E00E946E148091ED079091EE0793
S11317300E94A60AFF90EF90DF90CF900895CF9378
S1131740C62FE0EBF0E090819F73908394B1977F74
S113175094B99AB1977F9AB9813059F028F08230C0
S1131760A9F0833001F12CC085E494E00E946E144A
S11317702BC08FE494E00E946E1484B1886084B915
S1131780E0EBF0E08081806480831EC08CE594E00F
S11317900E946E1484B1886084B9E0EBF0E080812B
S11317A08068808311C088E694E00E946E1484B13E
S11317B0886084B9E0EBF0E08081806C808304C0B1
S11317C082E794E00E946E14C13059F028F0C230D0
S11317D0A9F0C33001F12CC08BE894E00E946E1490
S11317E02BC087E994E00E946E148AB188608AB99C
S11317F0E0EBF0E08081806180831EC086EA94E0A3
S11318000E946E148AB188608AB9E0EBF0E08081AE
S11318108062808311C084EB94E00E946E148AB1CC
S113182088608AB9E0EBF0E080818063808304C043
S113183080EC94E00E946E14CF9108958F3F11F0D4
S11318408093B3006F3F11F06093B40008958F92BA
S11318509F92AF92BF92CF92DF92EF92FF92CF937B
S11318604B015C0169017A0120E030E0A9010E948A
S11318701A128823C4F020E030E040E85FE3C50199
S1131880B4010E94AD1120E030E048E851E40E9428
S11318907E1320E030E040E651E40E94AE110E9445
S11318A09812C62F01C0CFEF20E030E0A901C70194
S11318B0B6010E941A128823BCF020E030E040E810
S11318C05FE3C701B6010E94AD1120E030E048E8B3
S11318D051E40E947E1320E030E040E651E40E948F
S11318E0AE110E94981201C06FEF8C2F0E941E0C43
S11318F0CF91FF90EF90DF90CF90BF90AF909F90EB
S11319008F9008959091C00095FFFCCF8093C600FE
S113191080E090E008958091C0008823E4F78091EE
S1131920C60090E00895CF92DF92EF92FF92CF939A
S1131930DF936B017C01D42FC22F10921D08E1E2CA
S1131940F8E080E091E0918380839383828360E474
S113195072E48FE090E0A70196010E94EB132150FE
S113196031093093C5002093C40088E98093C100F5
S11319708EE08093C200DD2351F0E0ECF0E0808142
S11319808F778083E1ECF0E0808180688083CC23D2
S113199051F0E0ECF0E080818F7B8083E1ECF0E0BB
S11319A0808180648083DF91CF91FF90EF90DF90FE
S11319B0CF9008951F920F920FB60F9211242F9378
S11319C03F934F935F936F937F938F939F93AF93C3
S11319D0BF93EF93FF9380E091E00E948B0C9C01F6
S11319E033272D30310569F02A33310521F02830B1
S11319F03105F1F417C081E080931D081092E407CB
S1131A0027C080911D08882351F0E091E407F0E09D
S1131A10E150F84F10828FEF97E00E94A40D1092CE
S1131A201D0816C08091E40781508093E40710C01C
S1131A3020911D08222361F0E091E407EE3140F487
S1131A4091E09E0F9093E407F0E0E150F84F80831B
S1131A50FF91EF91BF91AF919F918F917F916F9182
S1131A605F914F913F912F910F900FBE0F901F9058
S1131A7018958BED94E00E946E148CE095E00E9422
S1131A806E1484E395E00E946E148CE595E00E9448
S1131A906E148AE795E09F938F930E945814609187
S1131AA0F8077091F9078091FA079091FB070E945B
S1131AB091127F936F936091E9077091EA07809187
S1131AC0EB079091EC070E9491127F936F9388EA41
S1131AD095E09F938F930E9458146091F80770913A
S1131AE0F9078091FA079091FB070E9491127F9366
S1131AF06F936091E9077091EA078091EB079091E9
S1131B00EC070E9491127F936F9383ED95E09F936E
S1131B108F930E94581484E096E00E946E1488E12A
S1131B2096E00E946E148BE296E00E946E148FE39E
S1131B3096E00E946E148DB79EB70E960FB6F89479
S1131B409EBF0FBE8DBF08958F929F92AF92BF929A
S1131B50CF92DF92EF92FF92CF93DF93DC01EC916F
S1131B604E2F50E0FA01E154F109E233F10508F097
S1131B70D0C3EC5BFF4F0C942C14FC01218129365B
S1131B8009F4EBC02D3621F02D3409F02DC172C0BB
S1131B902281222309F457C002960E943214BC0108
S1131BA0990F880B990B0E94C9126B017C0120913B
S1131BB0F8073091F9074091FA075091FB070E940A
S1131BC01A12882394F420E030E044EB52ECC7016D
S1131BD0B6010E947913882344F0C092E907D09299
S1131BE0EA07E092EB07F092EC07C090E907D09087
S1131BF0EA07E090EB07F090EC072091F4073091AE
S1131C00F5074091F6075091F707C701B6010E9406
S1131C101A121816C4F4C092F407D092F507E09291
S1131C20F607F092F707C701B6010E9491127F935D
S1131C306F9384E596E09F938F930E9458140F90BE
S1131C400F900F900F906091E9077091EA078091CF
S1131C50EB079091EC070E9491127F936F9389E6B2
S1131C6096E09F938F930E9458140F900F900F90BB
S1131C700F9053C3FC012281222309F457C002961A
S1131C800E943214BC01990F880B990B0E94C9124F
S1131C906B017C012091E9073091EA074091EB0741
S1131CA05091EC070E947913181694F420E030E068
S1131CB044EB52E4C701B6010E941A12181644F00C
S1131CC0C092F807D092F907E092FA07F092FB0766
S1131CD0C090F807D090F907E090FA07F090FB075E
S1131CE02091F4073091F5074091F6075091F707DA
S1131CF0C701B6010E9479138823C4F4C092F40783
S1131D00D092F507E092F607F092F707C701B60103
S1131D100E9491127F936F9384E596E09F938F9333
S1131D200E9458140F900F900F900F906091F80735
S1131D307091F9078091FA079091FB070E94911224
S1131D407F936F938EE796E09F938F930E9458142E
S1131D500F900F900F900F90E0C22281222369F11F
S1131D6002960E943214BC01990F880B990B0E94B1
S1131D70C9126B017C012091F8073091F907409159
S1131D80FA075091FB070E941A121816B4F020911A
S1131D90E9073091EA074091EB075091EC07C7013E
S1131DA0B6010E947913882344F0C092F407D092BC
S1131DB0F507E092F607F092F7076091F407709147
S1131DC0F5078091F6079091F7070E9491127F938F
S1131DD06F9384E596E09F938F930E9458140F901D
S1131DE00F900F900F9099C283E996E00E946E14B1
S1131DF094C2FC012181233309F4D0C030F421338F
S1131E0059F0223309F469C0ECC1243309F427C121
S1131E10253309F485C1E5C12281222309F458C080
S1131E2002960E943214EC01BC01990F880B990BA5
S1131E300E94C9126B017C018090E9079090EA0727
S1131E40A090EB07B090EC07A50194010E947913D0
S1131E508823FCF02091F8073091F9074091FA07A4
S1131E605091FB07C701B6010E941A1218168CF094
S1131E70DF93CF9384ED96E09F938F930E94581441
S1131E80C701B6010E948B010F900F900F900F9025
S1131E9044C26091F8077091F9078091FA07909114
S1131EA0FB070E9491127F936F93C501B4010E94B6
S1131EB091127F936F938BEE96E09F938F930E9482
S1131EC058140F900F900F900F900F900F9025C201
S1131ED060E081E00E94190520C22281222309F4D6
S1131EE058C002960E943214EC01BC01990F880B71
S1131EF0990B0E94C9126B017C018090E9079090B4
S1131F00EA07A090EB07B090EC07A50194010E94AA
S1131F1079138823FCF02091F8073091F907409158
S1131F20FA075091FB07C701B6010E941A1218164E
S1131F308CF0DF93CF9387E097E09F938F930E9479
S1131F405814C701B6010E949D010F900F900F9085
S1131F500F90E3C16091F8077091F9078091FA0737
S1131F609091FB070E9491127F936F93C501B40176
S1131F700E9491127F936F938BEE96E09F938F93C1
S1131F800E9458140F900F900F900F900F900F9085
S1131F90C4C161E080E00E941905BFC122812223EF
S1131FA009F458C002960E943214EC01BC01990F46
S1131FB0880B990B0E94C9126B017C018090E90780
S1131FC09090EA07A090EB07B090EC07A50194016C
S1131FD00E9479138823FCF02091F8073091F907C7
S1131FE04091FA075091FB07C701B6010E941A12EB
S1131FF018168CF0DF93CF938EE197E09F938F9325
S11320000E945814C701B6010E94AF010F900F90AF
S11320100F900F9082C16091F8077091F907809139
S1132020FA079091FB070E9491127F936F93C50169
S1132030B4010E9491127F936F938BEE96E09F936D
S11320408F930E9458140F900F900F900F900F9041
S11320500F9063C160E081E00E944F045EC1228161
S1132060222309F458C002960E943214EC01BC01E8
S1132070990F880B990B0E94C9126B017C01809007
S1132080E9079090EA07A090EB07B090EC07A50150
S113209094010E9479138823FCF02091F807309171
S11320A0F9074091FA075091FB07C701B6010E9456
S11320B01A1218168CF0DF93CF9385E397E09F9361
S11320C08F930E945814C701B6010E94C1010F905A
S11320D00F900F900F9021C16091F8077091F9074C
S11320E08091FA079091FB070E9491127F936F935E
S11320F0C501B4010E9491127F936F938BEE96E019
S11321009F938F930E9458140F900F900F900F90ED
S11321100F900F9002C161E080E00E944F04FDC067
S11321202281222309F458C002960E943214EC0141
S1132130BC01990F880B990B0E94C9126B017C0199
S11321408090E9079090EA07A090EB07B090EC0725
S1132150A50194010E9479138823FCF02091F807CB
S11321603091F9074091FA075091FB07C701B60176
S11321700E941A1218168CF0DF93CF938CE497E028
S11321809F938F930E945814C701B6010E94D301F4
S11321900F900F900F900F90C0C06091F80770914E
S11321A0F9078091FA079091FB070E9491127F939F
S11321B06F93C501B4010E9491127F936F938BEECC
S11321C096E09F938F930E9458140F900F900F9056
S11321D00F900F900F90A1C060E081E00E94D9059C
S11321E09CC083E697E00E946E1497C0DC011196B0
S11321F02C91222309F458C001960E943214EC0158
S1132200BC01990F880B990B0E94C9126B017C01C8
S11322108090E9079090EA07A090EB07B090EC0754
S1132220A50194010E9479138823FCF02091F807FA
S11322303091F9074091FA075091FB07C701B601A5
S11322400E941A1218168CF0C701B6010E94F400FD
S1132250DF93CF938AE697E09F938F930E9458145D
S11322600F900F900F900F9058C06091F8077091E5
S1132270F9078091FA079091FB070E9491127F93CE
S11322806F93C501B4010E9491127F936F938BEEFB
S113229096E09F938F930E9458140F900F900F9085
S11322A00F900F900F9039C08BE797E00E946E1447
S11322B034C085EA97E00E946E146091E90770913A
S11322C0EA078091EB079091EC070E94F40025C087
S11322D086EB97E00E946E146091F8077091F907FD
S11322E08091FA079091FB070E94F40016C087ECD6
S11322F097E00E946E146091F4077091F507809145
S1132300F6079091F7070E94F40007C00E94390D68
S113231004C083E996E00E946E14DF91CF91FF9090
S1132320EF90DF90CF90BF90AF909F908F900895E3
S113233083E00E94950020E041E060E875E280E0DF
S113234090E00E94930C61E080E20E94DA010E9416
S1132350110178940E94390DFFCF5058BB27AA274A
S11323600E94C5110C943F130E94311338F00E944F
S1132370381320F039F49F3F19F426F40C942E13EB
S11323800EF4E095E7FB0C942813E92F0E945013F8
S113239058F3BA17620773078407950720F079F496
S11323A0A6F50C9472130EF4E0950B2EBA2FA02D03
S11323B00B01B90190010C01CA01A0011124FF27EE
S11323C0591B99F0593F50F4503E68F11A16F040E9
S11323D0A22F232F342F4427585FF3CF46953795E8
S11323E02795A795F0405395C9F77EF41F16BA0BAD
S11323F0620B730B840BBAF09150A1F0FF0FBB1F5B
S1132400661F771F881FC2F70EC0BA0F621F731FA3
S1132410841F48F4879577956795B795F7959E3F00
S113242008F0B0CF9395880F08F09927EE0F979591
S1132430879508950E94041308F481E008950E948A
S113244033120C943F130E94381358F00E94311336
S113245040F029F45F3F29F00C94281351110C9497
S113246073130C942E130E94501368F39923B1F341
S1132470552391F3951B550BBB27AA2762177307A6
S1132480840738F09F5F5F4F220F331F441FAA1F3A
S1132490A9F335D00E2E3AF0E0E832D091505040F6
S11324A0E695001CCAF72BD0FE2F29D0660F771FA4
S11324B0881FBB1F261737074807AB07B0E809F08A
S11324C0BB0B802DBF01FF2793585F4F3AF09E3F0F
S11324D0510578F00C9428130C9473135F3FE4F3C4
S11324E0983ED4F3869577956795B795F7959F5F52
S11324F0C9F7880F911D9695879597F90895E1E09E
S1132500660F771F881FBB1F621773078407BA07FC
S113251020F0621B730B840BBA0BEE1F88F7E09557
S113252008950E9498126894B1110C94731308953D
S11325300E94581388F09F5798F0B92F9927B751E4
S1132540B0F0E1F0660F771F881F991F1AF0BA9553
S1132550C9F714C0B13091F00E947213B1E008952C
S11325600C947213672F782F8827B85F39F0B93F1E
S1132570CCF3869577956795B395D9F73EF4909506
S11325808095709561957F4F8F4F9F4F0895E89484
S113259009C097FB3EF490958095709561957F4FA7
S11325A08F4F9F4F9923A9F0F92F96E9BB27939555
S11325B0F695879577956795B795F111F8CFFAF465
S11325C0BB0F11F460FF1BC06F5F7F4F8F4F9F4F96
S11325D016C0882311F096E911C0772321F09EE8F4
S11325E0872F762F05C0662371F096E8862F70E05A
S11325F060E02AF09A95660F771F881FDAF7880F34
S11326009695879597F90895990F0008550FAA0B89
S1132610E0E8FEEF16161706E807F907C0F01216F1
S11326201306E407F50798F0621B730B840B950BF4
S113263039F40A2661F0232B242B252B21F4089549
S11326400A2609F4A140A6958FEF811D811D0895E6
S113265097F99F6780E870E060E008959FEF80EC51
S1132660089500240A9416161706180609060895F4
S113267000240A9412161306140605060895092E5A
S11326800394000C11F4882352F0BB0F40F4BF2BC9
S113269011F460FF04C06F5F7F4F8F4F9F4F089509
S11326A057FD9058440F551F59F05F3F71F04795FF
S11326B0880F97FB991F61F09F3F79F087950895E4
S11326C0121613061406551FF2CF4695F1DF08C003
S11326D0161617061806991FF1CF86957105610520
S11326E008940895E894BB2766277727CB0197F9C8
S11326F008950E94041308F48FEF08950E94911323
S11327000C943F130E94311338F00E94381320F0C8
S1132710952311F00C9428130C942E1311240C946B
S113272073130E94501370F3959FC1F3950F50E0FB
S1132730551F629FF001729FBB27F00DB11D639F6F
S1132740AA27F00DB11DAA1F649F6627B00DA11D15
S1132750661F829F2227B00DA11D621F739FB00DBB
S1132760A11D621F839FA00D611D221F749F33272B
S1132770A00D611D231F849F600D211D822F762FC4
S11327806A2F11249F5750409AF0F1F088234AF0A1
S1132790EE0FFF1FBB1F661F771F881F915050400D
S11327A0A9F79E3F510580F00C9428130C947313E1
S11327B05F3FE4F3983ED4F3869577956795B79594
S11327C0F795E7959F5FC1F7FE2B880F911D9695AE
S11327D0879597F90895A1E21A2EAA1BBB1BFD0148
S11327E00DC0AA1FBB1FEE1FFF1FA217B307E407EC
S11327F0F50720F0A21BB30BE40BF50B661F771F44
S1132800881F991F1A9469F7609570958095909523
S11328109B01AC01BD01CF010895052E97FB1EF469
S113282000940E94241457FD07D00E94EB1307FC68
S113283003D04EF40C942414509540953095219572
S11328403F4F4F4F5F4F08959095809570956195D8
S11328507F4F8F4F9F4F0895EE0FFF1F0590F49108
S1132860E02D0994FC0188279927E89421912032CE
S1132870E9F3293010F02E30C8F32B3241F02D3219
S113288039F4689404C00E945014820F911D219160
S113289020532A30C0F31EF4909581959F4F0895DC
S11328A07AE0979F902D879F802D910D1124089594
S11328B0A0E0B0E0EEE5F4E10C943F17AE014B5F0D
S11328C05F4FFA0161917191AF018091230890915A
S11328D024080E949E14E2E00C945B170F931F934C
S11328E0CF93DF93E0912308F0912408238121FF03
S11328F01BC08C01D0E0C0E0F80181918F01609190
S1132900230870912408DB011896ED91FC91199726
S1132910882331F00995892B79F3DFEFCFEFECCFE2
S11329208AE00995892B19F08FEF9FEF02C08D2F54
S11329309C2FDF91CF911F910F910895ABE0B0E0F0
S1132940E4EAF4E10C942F176C017B018A01FC0189
S113295017821682838181FFCCC1CE0101963C018E
S1132960F6019381F70193FD859193FF81917F0196
S1132970882309F4BAC1853239F493FD859193FF14
S113298081917F01853229F4B60190E00E94951669
S1132990E7CF912C212C312CFFE1F315D8F08B32A9
S11329A079F038F4803279F08332A1F4232D206158
S11329B01DC08D3261F0803369F4232D216016C06F
S11329C0832D8260382EE32DE4603E2E2AC0F32D41
S11329D0F8601DC037FC2DC020ED280F2A3040F0D0
S11329E08E32B9F436FC81C1232D2064322E19C0F5
S11329F036FE06C08AE0989E200D1124922E11C046
S1132A00EAE02E9E200D1124222EF32DF0623F2E9B
S1132A1008C08C3621F4832D8068382E02C0883695
S1132A2041F4F70193FD859193FF81917F01811119
S1132A30B3CF982F9F7D9554933028F40C5F1F4F8C
S1132A409FE399830DC0833631F0833771F083356A
S1132A5009F059C021C0F801808189830E5F1F4F9E
S1132A6088248394912C530113C02801F2E04F0E63
S1132A70511CF801A080B18036FE03C0692D70E0BE
S1132A8002C06FEF7FEFC5010E948A164C018201DC
S1132A90F32DFF773F2E16C0280122E0420E511C71
S1132AA0F801A080B18036FE03C0692D70E002C039
S1132AB06FEF7FEFC5010E947F164C01F32DF06884
S1132AC03F2E820133FC1BC0822D90E088169906AC
S1132AD0B0F4B60180E290E00E9495162A94F4CFF7
S1132AE0F50137FC859137FE81915F01B60190E0D5
S1132AF00E94951621102A9421E0821A91088114CB
S1132B00910471F7E8C0843611F0893641F5F80173
S1132B1037FE07C060817181828193810C5F1F4FF2
S1132B2008C060817181072E000C880B990B0E5F21
S1132B301F4FF32DFF763F2E97FF09C09095809588
S1132B40709561957F4F8F4F9F4FF0683F2E2AE01D
S1132B5030E0A3010E94D116882E861845C085371F
S1132B6031F4232D2F7EB22E2AE030E025C0932DA0
S1132B70997FB92E8F36C1F018F4883579F0B5C035
S1132B80803719F0883721F0B0C0E92FE061BE2EFC
S1132B90B4FE0DC0FB2DF460BF2E09C034FE0AC084
S1132BA0292F2660B22E06C028E030E005C020E1BF
S1132BB030E002C020E132E0F801B7FE07C06081D6
S1132BC07181828193810C5F1F4F06C06081718186
S1132BD080E090E00E5F1F4FA3010E94D116882E63
S1132BE08618FB2DFF773F2E36FE0DC0232D2E7F3A
S1132BF0A22E891458F434FE0BC032FC09C0832D74
S1132C008E7EA82E05C0B82CA32C03C0B82C01C0FE
S1132C10B92CA4FE0FC0FE01E80DF11D80818033A4
S1132C2021F49A2D997EA92E09C0A2FE06C0B39460
S1132C30B39404C08A2D867809F0B394A3FC11C020
S1132C40A0FE06C0B21488F4280C922C9B180EC067
S1132C50B21460F4B60180E290E00E949516B39439
S1132C60F7CFB21418F42B1802C0982C212CA4FE10
S1132C7010C0B60180E390E00E949516A2FE17C032
S1132C80A1FC03C088E790E002C088E590E0B601AB
S1132C900CC08A2D867859F0A1FE02C08BE201C0D7
S1132CA080E2A7FC8DE2B60190E00E94951689149B
S1132CB038F4B60180E390E00E9495169A94F7CF19
S1132CC08A94F301E80DF11D8081B60190E00E9421
S1132CD095168110F5CF222009F442CEB60180E288
S1132CE090E00E9495162A94F6CFF601868197818A
S1132CF002C08FEF9FEF2B96E2E10C944B17FC017F
S1132D000590615070400110D8F7809590958E0F12
S1132D109F1F0895FC016150704001900110D8F785
S1132D20809590958E0F9F1F08950F931F93CF93B7
S1132D30DF93FB01238121FD03C08FEF9FEF2CC0A4
S1132D4022FF16C0468157812481358142175307DB
S1132D5044F4A081B1819D012F5F3F4F31832083D3
S1132D608C93268137812F5F3F4F3783268314C08E
S1132D708B01EC01FB010084F185E02D0995892B81
S1132D80E1F6D80116968D919C91179701961796A6
S1132D909C938E931697CE01DF91CF911F910F9143
S1132DA00895FA01AA27283051F1203181F1E894DD
S1132DB06F936E7F6E5F7F4F8F4F9F4FAF4FB1E02A
S1132DC03ED0B4E03CD0670F781F891F9A1FA11D25
S1132DD0680F791F8A1F911DA11D6A0F711D811D26
S1132DE0911DA11D20D009F468943F912AE0269FEB
S1132DF011243019305D3193DEF6CF010895462F4A
S1132E004770405D4193B3E00FD0C9F7F6CF462F2A
S1132E104F70405D4A3318F0495D31FD4052419393
S1132E2002D0A9F7EACFB4E0A69597958795779550
S1132E306795BA95C9F700976105710508959B01D7
S1132E40AC010A2E06945795479537952795BA9560
S1132E50C9F7620F731F841F951FA01D08952F9239
S1132E603F924F925F926F927F928F929F92AF9216
S1132E70BF92CF92DF92EF92FF920F931F93CF9363
S1132E80DF93CDB7DEB7CA1BDB0B0FB6F894DEBFFA
S1132E900FBECDBF09942A88398848885F846E8420
S1132EA07D848C849B84AA84B984C884DF80EE806A
S1132EB0FD800C811B81AA81B981CE0FD11D0FB673
S1132EC0F894DEBF0FBECDBFED010895F894FFCF97
S1132ED00000000300000000820C8B0C000052650F
S1132EE07365740D004552524F52210D00446564C0
S1132EF06F203120002D3E2025640D0A00446564B6
S1132F006F203220004465646F20332000446564E0
S1132F106F203420004465646F203520000D0A457D
S1132F2072726F7220646520726563657063696F85
S1132F306E0D0046756E63696F6E206765745F641D
S1132F406567726565735F544330206E6F206465F6
S1132F50736172726F6C6C6164610D0046756E63AF
S1132F60696F6E206765745F646567726565735F1A
S1132F70544331206E6F206465736172726F6C6CA0
S1132F806164610D0046756E63696F6E20676574D8
S1132F905F646567726565735F544332206E6F20AA
S1132FA06465736172726F6C6C6164610D0052656B
S1132FB0766973617220686F6D696E67210D0054C4
S1132FC0494D45522030202D204D6F64653A20250F
S1132FD0640D0A00496E76616C6964206D6F6465E6
S1132FE00D005072657363616C65723A2025640D3F
S1132FF00A0054696D65722030204F46460D004921
S11330006E76616C6964207072657363616C65725D
S11330102E2043616E277420696E697469616C693E
S11330207A652054494D455220300D0054696D6530
S1133030206F7574206F662072616E6765210D00C4
S11330404F433041204F66660D004F4330412054BA
S11330506F67676C650D004F43304120436C6561B9
S1133060720D004F433041205365740D00496E7654
S1133070616C6964206F7574707574206D6F64651C
S113308020666F72204F4330410D004F4330422081
S11330904F66660D0A0D004F43304220546F676738
S11330A06C650D0A0D004F43304220436C6561721C
S11330B00D0A0D004F433042205365740D0A0D0074
S11330C0496E76616C6964206F7574707574206DD7
S11330D06F646520666F72204F4330420D0A0D0005
S11330E054494D45522031202D204D6F64653A20BE
S11330F025640D0A0054696D65722031204F4646DF
S11331000D00496E76616C69642070726573636149
S11331106C65722E2043616E277420696E69746930
S1133120616C697A652054494D455220310D004F38
S1133130433141204F66660D004F43314120546FA7
S113314067676C650D004F43314120436C656172C4
S11331500D004F433141205365740D00496E766173
S11331606C6964206F757470757420666F72204F7B
S11331704331410D004F433142204F66660D0A0D25
S1133180004F43314220546F67676C650D0A0D0090
S11331904F43314220436C6561720D0A0D004F4369
S11331A03142205365740D0A0D00496E76616C69D5
S11331B064206F757470757420666F72204F43318C
S11331C0420D0054494D45522032202D204D6F644C
S11331D0652025640D0A0054696D657220322061F2
S11331E070616761646F0D00496E76616C6964207B
S11331F07072657363616C65722E2043616E27740F
S113320020696E697469616C697A652054494D4519
S11332105220320D004F433241204F66660D004F5D
S113322043324120546F67676C650D004F43324150
S113323020436C6561720D004F4332412053657425
S11332400D00496E76616C6964206F7574707574D5
S113325020666F72204F4332410D004F43324220AB
S11332604F66660D0A0D004F43324220546F676764
S11332706C650D0A0D004F43324220436C65617248
S11332800D0A0D004F433242205365740D0A0D00A0
S1133290496E76616C6964206F757470757420660C
S11332A06F72204F4332420D0A0D000D0A3D3D3D21
S11332B03D3D3D3D3D3D3D3D3D3D3D3D3D3D204F45
S11332C07074696F6E733A203D3D3D3D3D3D3D3D1B
S11332D03D3D3D3D3D3D3D3D3D200D003A416D6E42
S11332E06E092D2D3E20536574206D696E696D75D0
S11332F06D20616365707461626C652064656772DA
S113330065650D003A414D6E6E092D2D3E205365C5
S113331074206D6178696D756D2061636570746189
S1133320626C65206465677265650D003A41696E7B
S11333306E092D2D3E2053657420696E6974696190
S11333406C206465677265650D003A46786E6E0997
S11333502D2D3E2046696E67657220666C6578691E
S11333606F6E206465677265652C20782069732010
S113337066696E6765720D002020202020202020C1
S11333802020205B312C355D2C206E6E206973204B
S113339064656772656573205B25642C2025645D14
S11333A00D0A003A486E6E092D2D3E205365742097
S11333B0616C6C2066696E6765727320746F20643B
S11333C06567726565206E6E205B25642C2025641C
S11333D05D0D0A003A4309092D2D3E20436C6F739D
S11333E0652068616E640D003A4F09092D2D3E2059
S11333F04F70656E2068616E640D003A5209092DA4
S11334002D3E2052657365742068616E640D003A28
S11334106809092D2D3E2053686F772068656C700C
S11334200D0A0D00496E697469616C2064656772E8
S113343065653A2025640D0A004D696E696D756DE8
S1133440206465677265653A2025640D0A004D6144
S113345078696D756D206465677265653A202564C9
S11334600D0A0054686520636F6D6D616E6420778A
S113347061736E2774207265636F676E697A656421
S11334802C20747279207573696E672074686520C6
S113349068656C7020636F6D6D616E6420283A6896
S11334A0292E0D0046696E67657220312C206465F3
S11334B0677265653A2025640D0A00536F6C6F20AE
S11334C0677261646F7320656E7472652025642071
S11334D0792025640D0A0046696E67657220322CD6
S11334E0206465677265653A2025640D0A004669A3
S11334F06E67657220332C206465677265653A20B7
S113350025640D0A0046696E67657220342C2064B8
S113351065677265653A2025640D0A0046696E6721
S1133520657220352C206465677265653A202564D0
S11335300D0A004572726F720D0048616E6420645A
S113354065677265652025640D0A00436F6D616EC1
S1133550646F20696E636F6D706C65746F2E205696
S11335606572696669636172206179756461202896
S11335703A68290D00436C6F73696E672068616E49
S1133580642E2E2E0D004F70656E696E6720686183
S11335906E642E2E2E0D00526573657420746F2098
S11335A0696E697469616C20706F736974696F6E98
S10735B02E0D0000D8
S9030000FC
