:10000000B7C00000D6C00000D4C00000D2C00000BD
:10001000D0C00000CEC00000CCC00000CAC00000AC
:10002000C8C00000C6C00000C4C00000C2C00000BC
:10003000C0C00000BEC00000BCC00000BAC00000CC
:10004000B8C00000B6C00000B4C00000B2C00000DC
:10005000B0C00000AEC00000ACC00000AAC00000EC
:10006000A8C000000C943D09A4C00000A2C000007C
:10007000A0C000009EC000009CC000009AC000000C
:1000800098C0000096C0000094C0000092C000001C
:1000900090C000008EC000008CC000008AC000002C
:1000A00088C0000086C0000084C0000082C000003C
:1000B00080C000007EC000007CC000007AC000004C
:1000C00078C0000076C0000074C0000072C000005C
:1000D00070C000006EC000006CC000006AC000006C
:1000E00068C000001D05920498049E04A404AA049C
:1000F000B504C004CB04D104DC04E704F204F80422
:1001000003050E056007D606DC06E206E806EE06E5
:10011000F90604070F07150720072B0736073C07CA
:10012000470752076D0BCE09770BE109770BCC0916
:10013000770B770B770B770B650B770B710B770BC7
:10014000770B770B690B770B770B770B770B770BAD
:10015000770B770B770B770B770B770B770B770B8F
:10016000770B770B770B770B770B770B770B750B81
:1001700011241FBECFEFD1E2DEBFCDBF00E00CBF28
:1001800018E0A0E0B2E0EEE1F2E200E00BBF02C056
:1001900007900D92AE35B107D9F728E0AEE5B8E08B
:1001A00001C01D92AC38B207E1F70E94870B0C9496
:1001B0000D1126CF8ED380E090E0A0EAB1E48093C9
:1001C000620890936308A0936408B09365088EE07A
:1001D00084D3609162087091630880916408909163
:1001E000650880D46091620870916308809164080A
:1001F0009091650874D542E062E082E0DEC4089523
:100200004F925F926F927F928F929F92AF92BF9226
:10021000CF92DF92EF92FF920F931F93CF93DF93D2
:100220002B013C0149015A016701780120E030E0CF
:10023000A9010E94010C882344F120E030E04AE744
:1002400054E4C301B2010E94050C2B013C01209132
:100250005E0830915F0840E050E060E074E284EFB7
:1002600090E00E94D40DCA01B9010E949B0CA30129
:1002700092010E944F0D20E030E040E85FE30E94D1
:100280009D0B0E946D0CEB0102C0CFEFDFEF20E071
:1002900030E0A901C501B4010E94010C882344F19A
:1002A00020E030E04AE754E4C501B4010E94050CA7
:1002B0004B015C0120915E0830915F0840E050E006
:1002C00060E074E284EF90E00E94D40DCA01B901AD
:1002D0000E949B0CA50194010E944F0D20E030E08C
:1002E00040E85FE30E949D0B0E946D0C8B0102C0F1
:1002F0000FEF1FEF20E030E0A901C701B6010E9417
:10030000010C882344F120E030E04AE754E4C701BF
:10031000B6010E94050C6B017C0120915E083091B2
:100320005F0840E050E060E074E284EF90E00E94FB
:10033000D40DCA01B9010E949B0CA70196010E942D
:100340004F0D20E030E040E85FE30E949D0B0E94EB
:100350006D0CAB0102C04FEF5FEFB801CE01EAD4E4
:10036000DF91CF911F910F91FF90EF90DF90CF9091
:10037000BF90AF909F908F907F906F905F904F90C5
:1003800008954F925F926F927F928F929F92AF9259
:10039000BF92CF92DF92EF92FF920F931F932B01A8
:1003A0003C0149015A016701780120E030E044EB4B
:1003B00052EC0E944B0D88230CF120E030E044EB1E
:1003C00052E4C301B2010E94010C181604F120E0AE
:1003D00030E044EB52E4C301B2010E949D0B21E6E0
:1003E0003BE046EB5BE30E944F0D20E030E040E84D
:1003F0005FE30E949D0B2B013C0111C00F2E412C8D
:10040000512CF0E86F2EFFEB7F2EF02D08C00F2E41
:10041000412C512CF0E86F2EFFEB7F2EF02D20E0C9
:1004200030E044EB52ECC501B4010E944B0D88232F
:100430000CF120E030E044EB52E4C501B4010E942D
:10044000010C181604F120E030E044EB52E4C50141
:10045000B4010E949D0B21E63BE046EB5BE30E946A
:100460004F0D20E030E040E85FE30E949D0B4B0120
:100470005C0111C00F2E812C912CF0E8AF2EFFEB08
:10048000BF2EF02D08C00F2E812C912CF0E8AF2E3E
:10049000FFEBBF2EF02D20E030E044EB52ECC70123
:1004A000B6010E944B0D88230CF120E030E044EBB4
:1004B00052E4C701B6010E94010C1816E4F020E0D6
:1004C00030E044EB52E4C701B6010E949D0B21E6E7
:1004D0003BE046EB5BE30E944F0D20E030E040E85C
:1004E0005FE30E949D0B7B018C0109C0E12CF12C84
:1004F00000E81FEB04C0E12CF12C00E81FEBA50184
:100500009401C301B2017CDE1F910F91FF90EF9027
:10051000DF90CF90BF90AF909F908F907F906F9023
:100520005F904F9008958EE092E00C94300E089505
:1005300016D480E090E0A0EAB1E480936208909342
:100540006308A0936408B09365088EE00CD46091B2
:10055000620870916308809164089091650802D5E3
:1005600060916208709163088091640890916508B9
:10057000EDD542E062E082E05FC508954F925F9260
:100580006F927F928F929F92AF92BF92CF92DF92A3
:10059000EF92FF920F931F93CF93DF932B013C01B8
:1005A00049015A016701780120E030E0A9010E9469
:1005B000010C882344F120E030E04AE754E4C30111
:1005C000B2010E94050C2B013C0120916008309182
:1005D000610840E050E060E074E284EF90E00E9447
:1005E000D40DCA01B9010E949B0CA30192010E9483
:1005F0004F0D20E030E040E85FE30E949D0B0E9439
:100600006D0CEB0102C0CFEFDFEF20E030E0A9017D
:10061000C501B4010E94010C882344F120E030E0C0
:100620004AE754E4C501B4010E94050C4B015C018A
:10063000209160083091610840E050E060E074E291
:1006400084EF90E00E94D40DCA01B9010E949B0C76
:10065000A50194010E944F0D20E030E040E85FE3E7
:100660000E949D0B0E946D0C8B0102C00FEF1FEFCB
:1006700020E030E0A901C701B6010E94010C8823E7
:1006800044F120E030E04AE754E4C701B6010E949B
:10069000050C6B017C01209160083091610840E0FD
:1006A00050E060E074E284EF90E00E94D40DCA0153
:1006B000B9010E949B0CA70196010E944F0D20E0FA
:1006C00030E040E85FE30E949D0B0E946D0CAB019F
:1006D00002C04FEF5FEFB801CE0163D5DF91CF913C
:1006E0001F910F91FF90EF90DF90CF90BF90AF9050
:1006F0009F908F907F906F905F904F9008954F9252
:100700005F926F927F928F929F92AF92BF92CF92A1
:10071000DF92EF92FF920F931F932B013C0149014F
:100720005A016701780120E030E044EB52EC0E946E
:100730004B0D8823FCF020E030E044EB52E4C30191
:10074000B2010E94010C1816F4F020E030E044EBF6
:1007500052E4C301B201F1D721E63BE046EB5BE393
:100760000E944F0D20E030E040E85FE3E6D72B0128
:100770003C0111C00F2E412C512CF0E86F2EFFEBE5
:100780007F2EF02D08C00F2E412C512CF0E86F2E3B
:10079000FFEB7F2EF02D20E030E044EB52ECC50162
:1007A000B4010E944B0D8823FCF020E030E044EBC4
:1007B00052E4C501B4010E94010C1816F4F020E0C7
:1007C00030E044EB52E4C501B401B7D721E63BE089
:1007D00046EB5BE30E944F0D20E030E040E85FE332
:1007E000ACD74B015C0111C00F2E812C912CF0E88D
:1007F000AF2EFFEBBF2EF02D08C00F2E812C912CB9
:10080000F0E8AF2EFFEBBF2EF02D20E030E044EB00
:1008100052ECC701B6010E944B0D8823F4F020E092
:1008200030E044EB52E4C701B601EBD71816D4F020
:1008300020E030E044EB52E4C701B6017ED721E668
:100840003BE046EB5BE30E944F0D20E030E040E8E8
:100850005FE373D77B018C0109C0E12CF12C00E828
:100860001FEB04C0E12CF12C00E81FEBA501940163
:10087000C301B20183DE1F910F91FF90EF90DF90D3
:10088000CF90BF90AF909F908F907F906F905F9030
:100890004F90089587E392E00C94300E0895EF9204
:1008A000FF920F931F9380E692E00E94300EE12C9E
:1008B000F12C8701A8019701C801B70162DDA801E9
:1008C0009701C801B7011BDF1F910F91FF90EF90B7
:1008D000089584B1806E84B90895CF93C82F1F9274
:1008E0008F938AE692E09F938F930E941D0EE0E81B
:1008F000F0E080818C7F8083E1E8F0E08081877E7A
:1009000080830F900F900F900F908C2F90E080318C
:10091000910508F08EC0FC018827EE58FF4F8F4FDD
:100920000C94F00DE0E8F0E080818160808385C068
:10093000E0E8F0E08081826080837FC0E0E8F0E062
:1009400080818360808379C0E1E8F0E08081886005
:10095000808373C0E0E8F0E0808181608083E1E81B
:10096000F0E080818860808368C0E0E8F0E080810A
:1009700082608083E1E8F0E08081886080835DC0F0
:10098000E0E8F0E0808183608083E1E8F0E080814E
:100990008860808352C0E1E8F0E0808180618083DC
:1009A0004CC0E0E8F0E0808181608083E1E8F0E025
:1009B00080818061808341C0E0E8F0E080818260D6
:1009C0008083E1E8F0E080818061808336C0E0E8E8
:1009D000F0E0808183608083E1E8F0E080818061E5
:1009E00080832BC0E1E8F0E080818861808325C0AE
:1009F000E0E8F0E0808181608083E1E8F0E08081E0
:100A0000886180831AC0E0E8F0E0808182608083A2
:100A1000E1E8F0E08081886180830FC0E0E8F0E0E9
:100A2000808183608083E1E8F0E080818861808359
:100A300004C08FE792E00E94300ECF910895CF93CB
:100A4000DF93EC01DF93CF938EE892E09F938F9337
:100A50000E941D0EE1E8F0E08081887F80830F9086
:100A60000F900F900F90C830D105E9F028F420972F
:100A700079F0219791F02FC0C11581E0D807F9F0E6
:100A8000C11584E0D80709F1C034D10521F511C0A2
:100A900081EB92E00E94300E22C0E1E8F0E080811C
:100AA000816080831CC0E1E8F0E080818260808307
:100AB00016C0E1E8F0E080818360808310C0E1E847
:100AC000F0E08081846080830AC0E1E8F0E080810A
:100AD0008560808304C082EC92E00E94300EDF913A
:100AE000CF910895CF92DF92EF92FF9210925F081C
:100AF00010925E0820E030E04AE754E486D66B01AD
:100B00007C012DEB37E346E85BE37BD618163CF01F
:100B100081E090E090935F0880935E0844C02DEBE5
:100B200037E346E05DE3C701B6016BD618163CF02B
:100B300088E090E090935F0880935E0834C02DEBCE
:100B400037E346E85EE3C701B6015BD618163CF012
:100B500080E490E090935F0880935E0824C02DEBC2
:100B600037E346E85FE3C701B6014BD618163CF001
:100B700080E091E090935F0880935E0814C02DEBB5
:100B800037E346E850E4C701B6013BD618163CF0FF
:100B900080E094E090935F0880935E0804C088EF43
:100BA00092E00E94300E80915E0890915F0847DFCE
:100BB000FF90EF90DF90CF900895CF93DF93D62FE3
:100BC000C42FE0E8F0E090819F739083813059F06A
:100BD00028F0823091F08330D1F023C080E193E09F
:100BE0000E94300E22C08FE193E00E94300EE0E8B8
:100BF000F0E080818064808318C081E393E00E94EC
:100C0000300EE0E8F0E08081806880830EC082E4EE
:100C100093E00E94300EE0E8F0E08081806C8083F9
:100C200004C081E593E00E94300ED13059F028F0E5
:100C3000D23091F0D330D1F022C087E693E00E9409
:100C4000300E20C086E793E00E94300EE0E8F0E02E
:100C500080818061808316C088E893E00E94300E16
:100C6000E0E8F0E08081806280830CC089E993E055
:100C7000F7D7E0E8F0E080818063808303C088EAF2
:100C800093E0EED7C13051F028F0C23081F0C3308C
:100C9000B9F01FC08EEB93E0E3D71EC08DEC93E05C
:100CA000DFD7E0E8F0E080818460808315C08FEDBD
:100CB00093E0D6D7E0E8F0E08081886080830CC0C4
:100CC00080EF93E0CDD7E0E8F0E080818C60808316
:100CD00003C08FEF93E0C4D7DF91CF910895CF92F7
:100CE000DF92EF92FF9220E030E04AE754E48DD5A6
:100CF0006B017C0120915E0830915F0840E050E07C
:100D000060E074E284EF90E04FD7CA01B90113D6D6
:100D1000A7019601C4D620E030E040E85FE30DD59E
:100D2000DCD57093870060938600FF90EF90DF9092
:100D3000CF900895009721F09093890080938800C8
:100D40006115710521F070938B0060938A00411545
:100D5000510521F050938D0040938C0008958DB182
:100D600088638DB90895CF93C82F1F928F9385E123
:100D700094E09F938F9361D7E0E9F0E080818C7FCE
:100D80008083E1E9F0E08081877E80830F900F907F
:100D90000F900F908C2F90E08031910508F08DC05E
:100DA000FC018827EE57FF4F8F4F1AC7E0E9F0E0AC
:100DB00080818160808384C0E0E9F0E0808182608E
:100DC00080837EC0E0E9F0E080818360808378C02A
:100DD000E1E9F0E080818860808372C0E0E9F0E0C2
:100DE000808181608083E1E9F0E080818860808398
:100DF00067C0E0E9F0E0808182608083E1E9F0E0B3
:100E00008081886080835CC0E0E9F0E0808183605D
:100E10008083E1E9F0E080818860808351C0E1E96E
:100E2000F0E08081806180834BC0E0E9F0E0808168
:100E300081608083E1E9F0E080818061808340C04F
:100E4000E0E9F0E0808182608083E1E9F0E0808188
:100E50008061808335C0E0E9F0E080818360808339
:100E6000E1E9F0E08081806180832AC0E1E9F0E07F
:100E700080818861808324C0E0E9F0E08081816026
:100E80008083E1E9F0E080818861808319C0E0E936
:100E9000F0E0808182608083E1E9F0E08081886118
:100EA00080830EC0E0E9F0E0808183608083E1E927
:100EB000F0E080818861808303C08FE792E0D0D624
:100EC000CF910895CF93DF93EC01DF93CF938AE224
:100ED00094E09F938F93B1D6E1E9F0E08081887F21
:100EE00080830F900F900F900F90C830D105E1F0E4
:100EF00028F4209779F0219789F02EC0C11581E060
:100F0000D807F1F0C11584E0D80701F1C034D1054C
:100F100019F510C08DE494E0A3D621C0E1E9F0E01A
:100F20008081816080831BC0E1E9F0E08081826084
:100F3000808315C0E1E9F0E08081836080830FC089
:100F4000E1E9F0E080818460808309C0E1E9F0E0BC
:100F500080818560808303C08EE594E081D6DF9137
:100F6000CF910895CF92DF92EF92FF921092610895
:100F70001092600820E030E04AE754E446D46B0168
:100F80007C012DEB37E346E85BE33BD418163CF0DD
:100F900081E090E0909361088093600843C02DEB5E
:100FA00037E346E05DE3C701B6012BD418163CF0E9
:100FB00088E090E0909361088093600833C02DEB47
:100FC00037E346E85EE3C701B6011BD418163CF0D0
:100FD00080E490E0909361088093600823C02DEB3B
:100FE00037E346E85FE3C701B6010BD418163CF0BF
:100FF00080E091E0909361088093600813C02DEB2E
:1010000037E346E850E4C701B601FBD318163CF0BD
:1010100080E094E0909361088093600803C088EFBB
:1010200092E01ED680916008909161084BDFFF909E
:10103000EF90DF90CF900895CF93DF93D62FC42FFA
:10104000E0E9F0E090819F739083813051F028F0C7
:10105000823081F08330B9F01FC084E994E000D67B
:101060001EC083EA94E0FCD5E0E9F0E08081806472
:10107000808315C085EB94E0F3D5E0E9F0E0808152
:10108000806880830CC086EC94E0EAD5E0E9F0E06B
:101090008081806C808303C085ED94E0E1D5D13000
:1010A00051F028F0D23081F0D330B9F01FC08BEE70
:1010B00094E0D6D51EC08AEF94E0D2D5E0E9F0E006
:1010C00080818061808315C08CE095E0C9D5E0E91E
:1010D000F0E08081806280830CC08DE195E0C0D516
:1010E000E0E9F0E080818063808303C08CE295E0DA
:1010F000B7D5C13051F028F0C23081F0C330B9F01B
:101100001FC082E495E0ACD51EC081E595E0A8D56E
:10111000E0E9F0E080818460808315C083E695E09B
:101120009FD5E0E9F0E08081886080830CC084E78F
:1011300095E096D5E0E9F0E080818C60808303C083
:1011400083E895E08DD5DF91CF910895CF92DF921E
:10115000EF92FF9220E030E04AE754E456D36B016F
:101160007C01209160083091610840E050E060E02F
:1011700074E284EF90E018D5CA01B901DCD3A7016D
:1011800096018DD420E030E040E85FE3D6D2A5D3CD
:101190007093970060939600FF90EF90DF90CF9050
:1011A0000895009721F0909399008093980061151D
:1011B000710521F070939B0060939A0041155105D1
:1011C00021F050939D0040939C0008959091C000A1
:1011D00095FFFCCF8093C60080E090E00895809159
:1011E000C0008823E4F78091C60090E00895CF9274
:1011F000DF92EF92FF92CF93DF936B017C01D42FAC
:10120000C22F10928508E6E8F8E080E092E0918332
:1012100080839383828360E472E48FE090E0A7018F
:101220009601A0D4215031093093C5002093C40009
:1012300088E98093C1008EE08093C200DD2351F0E5
:10124000E0ECF0E080818F778083E1ECF0E080815A
:1012500080688083CC2351F0E0ECF0E080818F7BCC
:101260008083E1ECF0E0808180648083DF91CF9126
:10127000FF90EF90DF90CF9008951F920F920FB6DE
:101280000F9211240BB60F922F933F934F935F93BE
:101290006F937F938F939F93AF93BF93EF93FF933E
:1012A00080E092E09CDF9C0133272D30310549F02E
:1012B0002A333105B1F481E08093850810926608E5
:1012C00020C080918508882349F0E0916608F0E00D
:1012D000E959F74F108287E698E042D010928508CE
:1012E00010C020918508222361F0E0916608EE315C
:1012F00040F491E09E0F90936608F0E0E959F74FB3
:101300008083FF91EF91BF91AF919F918F917F91DA
:101310006F915F914F913F912F910F900BBE0F9066
:101320000FBE0F901F90189589E995E099D48EEA29
:1013300095E096D481EC95E093D481E096E090D44A
:101340008DE596E08DD480E896E08AD48AE996E02F
:1013500087D481EB96E084D487EC96E081C408952D
:101360008F929F92AF92BF92CF92DF92EF92FF92B5
:101370000F931F93CF93DF93EC01E8818E2F90E0C2
:10138000FC01E354F109E632F10508F0B0C1882709
:10139000EE56FF4F8F4F24C482DAACC18981882377
:1013A00009F4A8C1CE01019623D49F938F938EEDAB
:1013B00096E09F938F9341D40F900F900F900F90D2
:1013C00099C18981833309F48AC030F4813369F08B
:1013D000823309F447C075C1853309F4FAC008F4B3
:1013E000BCC0863309F431C16CC18A818823A9F15C
:1013F000CE010296FDD3EC01BC01990F880B990B2D
:101400009AD24B015C0120E030E044EB52EC43D334
:101410008823FCF020E030E044EB52E4C501B40145
:10142000F0D11816B4F0DF93CF9383EF96E09F933B
:101430008F9303D4E12CF12C04E313ECA801970162
:10144000C501B4010E94C1010F900F900F900F9041
:1014500051C18AE097E004D44DC140E060E081E0F2
:1014600062D848C18A818823A9F1CE010296C0D3EF
:10147000EC01BC01990F880B990B5DD24B015C010B
:1014800020E030E044EB52EC06D38823FCF020E06F
:1014900030E044EB52E4C501B401B3D11816B4F006
:1014A000DF93CF938DE297E09F938F93C6D3E12C88
:1014B000F12C04E313ECA5019401C801B7010E94CB
:1014C000C1010F900F900F900F9014C18AE097E028
:1014D000C7D310C140E061E080E025D80BC18A810C
:1014E0008823A9F1CE01029683D3EC01BC01990FA8
:1014F000880B990B20D26B017C0120E030E044EB9B
:1015000052ECC9D28823FCF020E030E044EB52E4F6
:10151000C701B60176D11816B4F0DF93CF9384E4F7
:1015200097E09F938F9389D38701760120E030E085
:1015300044E353ECCA01B9010E94C1010F900F901E
:101540000F900F90D7C08AE097E08AD3D3C041E0D4
:1015500060E080E00E949302CDC08A818823A1F1DF
:10156000CE01029645D3EC01BC01990F880B990B73
:10157000E2D14B015C0120E030E044EB52EC8BD235
:101580008823F4F020E030E044EB52E4C501B401DC
:1015900038D11816ACF0DF93CF938BE597E09F938B
:1015A0008F934BD3E12CF12C04E313ECA8019701AA
:1015B000C501B401A4D80F900F900F900F909AC05E
:1015C0008AE097E04DD396C040E060E081E062D9C8
:1015D00091C08A818823A1F1CE01029609D3EC0142
:1015E000BC01990F880B990BA6D14B015C0120E03F
:1015F00030E044EB52EC4FD28823F4F020E030E0AE
:1016000044EB52E4C501B401FCD01816ACF0DF93F2
:10161000CF9382E797E09F938F930FD3E12CF12C28
:1016200004E313ECA5019401C801B70168D80F9039
:101630000F900F900F905EC08AE097E011D35AC0D0
:1016400040E061E080E026D955C08A818823A1F17D
:10165000CE010296CDD2EC01BC01990F880B990BFB
:101660006AD16B017C0120E030E044EB52EC13D2F4
:101670008823F4F020E030E044EB52E4C701B601E7
:10168000C0D01816ACF0DF93CF9389E897E09F9312
:101690008F93D3D28701760120E030E044E353EC0E
:1016A000CA01B9012CD80F900F900F900F9022C053
:1016B0008AE097E0D5D21EC041E060E080E0EAD841
:1016C00019C080EA97E0CCD215C083EC97E0C8D26D
:1016D00011C083ED97E0C4D20DC089ED97E0C0D270
:1016E00009C08AEE97E0BCD205C01EDE03C08BEFB6
:1016F00097E0B6D2DF91CF911F910F91FF90EF90BD
:10170000DF90CF90BF90AF909F908F90089520E092
:1017100041E060E875E280E090E069DD8CE398E00C
:101720009FD20E94DA008DE498E09AD20E9498023B
:101730007894B5D8F9DDFFCF5058BB27AA270ED033
:1017400070C161D130F066D120F031F49F3F11F4C7
:101750001EF456C10EF4E095E7FB4CC1E92F72D19F
:1017600080F3BA17620773078407950718F071F4BE
:101770009EF58AC10EF4E0950B2EBA2FA02D0B0119
:10178000B90190010C01CA01A0011124FF27591BC6
:1017900099F0593F50F4503E68F11A16F040A22FCC
:1017A000232F342F4427585FF3CF4695379527953D
:1017B000A795F0405395C9F77EF41F16BA0B620B3C
:1017C000730B840BBAF09150A1F0FF0FBB1F661F83
:1017D000771F881FC2F70EC0BA0F621F731F841FC6
:1017E00048F4879577956795B795F7959E3F08F0EC
:1017F000B3CF9395880F08F09927EE0F97958795AB
:101800000895D4D008F481E008950CD00AC102D123
:1018100040F0F9D030F021F45F3F19F0EBC05111E6
:1018200034C1EEC00FD198F39923C9F35523B1F316
:10183000951B550BBB27AA2762177307840738F03F
:101840009F5F5F4F220F331F441FAA1FA9F333D09E
:101850000E2E3AF0E0E830D091505040E695001C52
:10186000CAF729D0FE2F27D0660F771F881FBB1F0E
:10187000261737074807AB07B0E809F0BB0B802DE8
:10188000BF01FF2793585F4F2AF09E3F510568F034
:10189000B1C0FBC05F3FECF3983EDCF386957795D3
:1018A0006795B795F7959F5FC9F7880F911D969536
:1018B000879597F90895E1E0660F771F881FBB1F92
:1018C000621773078407BA0720F0621B730B840B3F
:1018D000BA0BEE1F88F7E0950895BCD088F09F57AB
:1018E00090F0B92F9927B751A0F0D1F0660F771F6C
:1018F000881F991F1AF0BA95C9F712C0B13081F04C
:10190000C3D0B1E00895C0C0672F782F8827B85F93
:1019100039F0B93FCCF3869577956795B395D9F7AC
:101920003EF490958095709561957F4F8F4F9F4FB6
:101930000895E89409C097FB3EF4909580957095C2
:1019400061957F4F8F4F9F4F9923A9F0F92F96E90B
:10195000BB279395F695879577956795B795F11180
:10196000F8CFFAF4BB0F11F460FF1BC06F5F7F4F1D
:101970008F4F9F4F16C0882311F096E911C077232F
:1019800021F09EE8872F762F05C0662371F096E838
:10199000862F70E060E02AF09A95660F771F881F07
:1019A000DAF7880F9695879597F90895990F0008AB
:1019B000550FAA0BE0E8FEEF16161706E807F90721
:1019C000C0F012161306E407F50798F0621B730BBC
:1019D000840B950B39F40A2661F0232B242B252B3D
:1019E00021F408950A2609F4A140A6958FEF811DE0
:1019F000811D089597F99F6780E870E060E0089581
:101A00009FEF80EC089500240A9416161706180616
:101A10000906089500240A941216130614060506F2
:101A20000895092E0394000C11F4882352F0BB0F83
:101A300040F4BF2B11F460FF04C06F5F7F4F8F4FE6
:101A40009F4F089557FD9058440F551F59F05F3F21
:101A500071F04795880F97FB991F61F09F3F79F0D0
:101A600087950895121613061406551FF2CF469552
:101A7000F1DF08C0161617061806991FF1CF8695D4
:101A80007105610508940895E894BB2766277727B8
:101A9000CB0197F908958ADF08F48FEF08950BD0F2
:101AA000C0CFB1DF28F0B6DF18F0952309F0A2CF40
:101AB000A7CF1124EACFC6DFA0F3959FD1F3950FEE
:101AC00050E0551F629FF001729FBB27F00DB11DC2
:101AD000639FAA27F00DB11DAA1F649F6627B00D52
:101AE000A11D661F829F2227B00DA11D621F739F3B
:101AF000B00DA11D621F839FA00D611D221F749F49
:101B00003327A00D611D231F849F600D211D822F8F
:101B1000762F6A2F11249F5750408AF0E1F08823D6
:101B20004AF0EE0FFF1FBB1F661F771F881F9150E3
:101B30005040A9F79E3F510570F05CCFA6CF5F3FA4
:101B4000ECF3983EDCF3869577956795B795F79516
:101B5000E7959F5FC1F7FE2B880F911D969587959E
:101B600097F90895A1E21A2EAA1BBB1BFD010DC017
:101B7000AA1FBB1FEE1FFF1FA217B307E407F5073D
:101B800020F0A21BB30BE40BF50B661F771F881F19
:101B9000991F1A9469F760957095809590959B01AF
:101BA000AC01BD01CF010895052E97FB16F40094FA
:101BB0000FD057FD05D0D6DF07FC02D046F408C091
:101BC00050954095309521953F4F4F4F5F4F089569
:101BD00090958095709561957F4F8F4F9F4F089599
:101BE000EE0FFF1F881F8BBF0790F691E02D199411
:101BF000FC0188279927E89421912032E9F32930C4
:101C000010F02E30C8F32B3239F02D3231F46894B5
:101C100003C00BD0820F911D219120532A30C8F3AD
:101C20001EF4909581959F4F08957AE0979F902D8F
:101C3000879F802D910D11240895CF93DF93CDB709
:101C4000DEB7AE014A5F5F4FFA0161917191AF015A
:101C5000809188089091890833D0DF91CF910895C1
:101C60000F931F93CF93DF93E0918808F091890839
:101C7000238121FF1BC08C01D0E0C0E0F8018191DD
:101C80008F016091880870918908DB011896ED91A9
:101C9000FC911997882331F01995892B79F3DFEF9F
:101CA000CFEFECCF8AE01995892B19F08FEF9FEFDA
:101CB00002C08D2F9C2FDF91CF911F910F9108951E
:101CC0002F923F924F925F926F927F928F929F924C
:101CD000AF92BF92CF92DF92EF92FF920F931F933A
:101CE000CF93DF93CDB7DEB72B970FB6F894DEBF57
:101CF0000FBECDBF6C017B018A01FC0117821682E9
:101D0000838181FFBFC1CE0101963C01F601938121
:101D1000F70193FD859193FF81917F01882309F459
:101D2000ADC1853239F493FD859193FF81917F0197
:101D3000853221F4B60190E0D6D1E8CF912C212C48
:101D4000312CFFE1F315D8F08B3279F038F4803282
:101D500079F08332A1F4232D20611DC08D3261F012
:101D6000803369F4232D216016C0832D8260382EC4
:101D7000E32DE4603E2E2AC0F32DF8601DC037FC31
:101D80002DC020ED280F2A3040F08E32B9F436FCF9
:101D900075C1232D2064322E19C036FE06C08AE09C
:101DA000989E200D1124922E11C0EAE02E9E200D47
:101DB0001124222EF32DF0623F2E08C08C3621F420
:101DC000832D8068382E02C0883641F4F70193FDD8
:101DD000859193FF81917F018111B3CF982F9F7DD2
:101DE0009554933028F40C5F1F4F9FE399830DC0E7
:101DF000833631F0833771F0833509F055C020C048
:101E0000F801808189830E5F1F4F88248394912C71
:101E1000530112C02801F2E04F0E511CF801A080BE
:101E2000B18036FE03C0692D70E002C06FEF7FEF16
:101E3000C5014ED14C018201F32DFF773F2E15C015
:101E4000280122E0420E511CF801A080B18036FE2C
:101E500003C0692D70E002C06FEF7FEFC5012DD187
:101E60004C01F32DF0683F2E820133FC19C0822D06
:101E700090E088169906A0F4B60180E290E033D194
:101E80002A94F5CFF50137FC859137FE81915F01EA
:101E9000B60190E028D121102A9421E0821A9108FD
:101EA0008114910479F7E1C0843611F0893639F54F
:101EB000F80137FE07C060817181828193810C5FD8
:101EC0001F4F08C060817181072E000C880B990B91
:101ED0000E5F1F4FF32DFF763F2E97FF09C09095A1
:101EE0008095709561957F4F8F4F9F4FF0683F2E83
:101EF0002AE030E0A30133D1882E861844C085370C
:101F000031F4232D2F7EB22E2AE030E025C0932D10
:101F1000997FB92E8F36C1F018F4883579F0AEC0AC
:101F2000803719F0883721F0A9C0E92FE061BE2E73
:101F3000B4FE0DC0FB2DF460BF2E09C034FE0AC0F4
:101F4000292F2660B22E06C028E030E005C020E12F
:101F500030E002C020E132E0F801B7FE07C0608146
:101F60007181828193810C5F1F4F06C060817181F6
:101F700080E090E00E5F1F4FA301F1D0882E8618FD
:101F8000FB2DFF773F2E36FE0DC0232D2E7FA22E78
:101F9000891458F434FE0BC032FC09C0832D8E7EA8
:101FA000A82E05C0B82CA32C03C0B82C01C0B92C96
:101FB000A4FE0FC0FE01E80DF11D8081803321F4E5
:101FC0009A2D997EA92E09C0A2FE06C0B394B3949F
:101FD00004C08A2D867809F0B394A3FC10C0A0FE3B
:101FE00006C0B21480F4280C922C9B180DC0B214B9
:101FF00058F4B60180E290E076D0B394F8CFB214F2
:1020000018F42B1802C0982C212CA4FE0FC0B60186
:1020100080E390E068D0A2FE16C0A1FC03C088E770
:1020200090E002C088E590E0B6010CC08A2D867869
:1020300051F0A1FE02C08BE201C080E2A7FC8DE25C
:10204000B60190E050D0891430F4B60180E390E0FE
:102050004AD09A94F8CF8A94F301E80DF11D80815B
:10206000B60190E040D08110F6CF222009F44ECE88
:10207000B60180E290E037D02A94F7CFF60186814E
:10208000978102C08FEF9FEF2B960FB6F894DEBFBB
:102090000FBECDBFDF91CF911F910F91FF90EF90B9
:1020A000DF90CF90BF90AF909F908F907F906F9078
:1020B0005F904F903F902F900895FC0105906150E4
:1020C00070400110D8F7809590958E0F9F1F08954E
:1020D000FC016150704001900110D8F780959095F7
:1020E0008E0F9F1F08950F931F93CF93DF93FB01D4
:1020F000238121FD03C08FEF9FEF2CC022FF16C06C
:1021000046815781248135814217530744F4A081C9
:10211000B1819D012F5F3F4F318320838C932681B6
:1021200037812F5F3F4F3783268314C08B01EC012B
:10213000FB010084F185E02D1995892BE1F6D8018A
:1021400016968D919C911797019617969C938E9356
:102150001697CE01DF91CF911F910F910895FA014B
:10216000AA27283051F1203181F1E8946F936E7FD6
:102170006E5F7F4F8F4F9F4FAF4FB1E03ED0B4E0C7
:102180003CD0670F781F891F9A1FA11D680F791F08
:102190008A1F911DA11D6A0F711D811D911DA11D19
:1021A00020D009F468943F912AE0269F1124301929
:1021B000305D3193DEF6CF010895462F4770405DC4
:1021C0004193B3E00FD0C9F7F6CF462F4F70405D73
:1021D0004A3318F0495D31FD4052419302D0A9F7CE
:1021E000EACFB4E0A6959795879577956795BA95C8
:1021F000C9F700976105710508959B01AC010A2E8E
:1022000006945795479537952795BA95C9F7620F64
:0E221000731F841F951FA01D0895F894FFCF23
:10221E000000000300000000E608EF08000046750D
:10222E006E63696F6E206765745F6465677265655E
:10223E00735F544331206E6F206465736172726FE9
:10224E006C6C6164610D0046756E63696F6E20671C
:10225E0065745F646567726565735F544333206EA2
:10226E006F206465736172726F6C6C6164610D00D6
:10227E00484F4D494E472E2E0D0054494D45522084
:10228E003120656E206D6F646F2025640D0A004D40
:10229E006F646F20696E76616C6964610D005449DC
:1022AE004D4552203120636F6E20707265736361ED
:1022BE006C657220696775616C20612025640D0A5A
:1022CE000054696D65722031206170616761646FC1
:1022DE000D005072657363616C657220696E766174
:1022EE006C69646F2E204E6F207075646F20696E5E
:1022FE00696369616C697A6172736520656C2054DB
:10230E00494D455220310D005469656D706F206640
:10231E00756572612064652072616E676F210D00B4
:10232E004F433141206D6F646F204F66660D004F35
:10233E00433141206D6F646F20546F67676C650D7C
:10234E00004F433141206D6F646F20436C656172A5
:10235E000D004F433141206D6F646F205365740D36
:10236E000053616C696461204F43314120696E7680
:10237E00616C6964610D004F433142206D6F646F73
:10238E00204F66660D004F433142206D6F646F2003
:10239E00546F67676C650D004F433142206D6F645B
:1023AE006F20436C6561720D004F433142206D6F9B
:1023BE00646F205365740D0053616C696461204F26
:1023CE0043314220696E76616C6964610D004F4342
:1023DE003143206D6F646F204F66660D004F4331A1
:1023EE0043206D6F646F20546F67676C650D004FEF
:1023FE00433143206D6F646F20436C6561720D0035
:10240E004F433143206D6F646F205365740D00533D
:10241E00616C696461204F43314320696E76616C53
:10242E006964610D0054494D4552203320656E207C
:10243E006D6F646F2025640D0A0054494D4552207E
:10244E003320636F6E207072657363616C657220EA
:10245E00696775616C20612025640D0A0054696DF1
:10246E0065722033206170616761646F0D00507278
:10247E00657363616C657220696E76616C69646FF9
:10248E002E204E6F207075646F20696E69636961CE
:10249E006C697A6172736520656C2054494D4552A2
:1024AE0020330D004F433341206D6F646F204F6614
:1024BE00660D004F433341206D6F646F20546F677C
:1024CE00676C650D004F433341206D6F646F204381
:1024DE006C6561720D004F433341206D6F646F2048
:1024EE005365740D0053616C696461204F43334131
:1024FE0020696E76616C6964610D004F4333422032
:10250E006D6F646F204F66660D004F433342206D32
:10251E006F646F20546F67676C650D004F433342D5
:10252E00206D6F646F20436C6561720D004F4333F5
:10253E0042206D6F646F205365740D0053616C699A
:10254E006461204F43334220696E76616C69646129
:10255E000D004F433343206D6F646F204F66660D41
:10256E00004F433343206D6F646F20546F67676C69
:10257E00650D004F433343206D6F646F20436C65D0
:10258E0061720D004F433343206D6F646F205365AE
:10259E00740D0053616C696461204F4333432069AD
:1025AE006E76616C6964610D003D3D3D3D204F705E
:1025BE0074696F6E733A203D3D3D3D200D003A48E3
:1025CE0020202020202D2D3E20486F6D696E670D36
:1025DE00003A446E6E2020202D2D3E2048616E6400
:1025EE0020666C6578696F6E206465677265652C10
:1025FE00207768657265206E6E20676F6573206642
:10260E00726F6D202D3930B020746F203930B00DBF
:10261E00003A46786E6E20202D2D3E2046696E675C
:10262E00657220666C6578696F6E20646567726589
:10263E00652C2077686572652078206973206E7529
:10264E006D626572206F662066696E6765722061C5
:10265E006E64206E6E20676F65732066726F6D20DC
:10266E002D3930B020746F203930B00D003A4D2026
:10267E00202020202D2D3E204D6F76652068616E26
:10268E006420696E646566696E6974656C790D00A7
:10269E003A5320202020202D2D3E2053746F702081
:1026AE006D6F76656D656E740D003A4320202020A7
:1026BE00202D2D3E20436C6F73652068616E640D76
:1026CE00003A4F20202020202D2D3E204F70656E89
:1026DE002068616E640D003A6820202020202D2D88
:1026EE003E2053686F772068656C700D0A00466C4B
:1026FE006578696F6E206465677265653A2025643A
:10270E000D0A0046696E67657220312C206465677C
:10271E007265653A2025640D0A00536F6C6F206751
:10272E007261646F7320656E747265202D39302E60
:10273E0030B02079202B39302E30B00D0046696E26
:10274E0067657220322C206465677265653A2025B4
:10275E00640D0A0046696E67657220332C2064652D
:10276E00677265653A2025640D0A0046696E6765D5
:10277E007220342C206465677265653A2025640DDD
:10278E000A0046696E67657220352C206465677293
:10279E0065653A2025640D0A0046696E67657220EC
:1027AE00362C206465677265653A2025640D0A0033
:1027BE004572726F722C2076657220617975646134
:1027CE002064656C20636F6D616E646F2046786E59
:1027DE006E0D004D6F76696E672068616E642E2EE9
:1027EE002E0D0053544F500D00436C6F73696E677E
:1027FE002068616E642E2E2E0D004F70656E696E10
:10280E00672068616E642E2E2E0D0054686520635D
:10281E006F6D6D616E64207761736E2774207265C3
:10282E00636F676E697A65642C2074727920757394
:10283E00696E67207468652068656C7020636F6DC3
:10284E006D616E6420283A68292E0D003D3D3D20B5
:10285E0054494D45522031203D3D3D0D003D3D3DFD
:0E286E002054494D45522033203D3D3D0D0084
:00000001FF
