S00E00004D61737465722E73726563AA
S11300000C9434000C9451000C9451000C94510045
S11300100C9451000C9451000C9451000C94510018
S11300200C9451000C9451000C9451000C94510008
S11300300C9451000C9451000C9451000C945100F8
S11300400C9451000C9451000C94D8010C94510060
S11300500C9451000C9451000C9451000C945100D8
S11300600C94E8000C94510011241FBECFEFD8E08B
S1130070DEBFCDBF11E0A0E0B1E0ECE3F5E002C0EB
S113008005900D92A631B107D9F721E0A6E1B1E0C0
S113009001C01D92AE33B207E1F70E9439020C94FD
S11300A09C020C9400000F931F93CF938B019C012F
S11300B0C42F1092B90060E074E284EF90E0A901CB
S11300C098010E944A02DA01C9014097A109B109C5
S11300D0B695A795979587958093B800C093180116
S11300E0CF911F910F91089584EA8093BC00809171
S11300F0BC008823E4F78091B900887F883011F030
S113010080E0089581E0089584E98093BC00089517
S11301108093BB0080E4689FB00111248091180192
S1130120682B64686093BC008091BC008823E4F76A
S11301308091B900887F90E050E08417950711F012
S113014080E0089581E0089520E4829FC001112495
S113015090911801892B84688093BC008091BC0025
S11301608823E4F78091B900887F90E070E08617D7
S1130170970769F58091BB00882341F08A33A9F47D
S113018081E0809337011092160108958091370120
S1130190882341F0E0911601F0E0E75EFE4F108203
S11301A01092160110923701089580913701882327
S11301B071F0E0911601EE3150F481E08E0F8093DE
S11301C01601F0E08091BB00E75EFE4F8083089546
S11301D01F920F920FB60F9211242F933F934F93B8
S11301E05F936F937F938F939F93AF93BF93EF939B
S11301F0FF938091B900887F8038A1F028F4882388
S1130200A1F1803641F038C0883AE9F0883B21F109
S1130210803A91F50EC06091B900687F81E00E9438
S1130220A4002AC06091B900687F81E00E94A40004
S113023023C084E191E00E946C02ECEBF0E0808149
S11302408068808319C04091B9008091BB00487FC9
S113025061E00E94880010C04091B9008091BB0009
S1130260487F61E00E94880007C08EE091E00E9410
S11302706C0285EC8093BC00FF91EF91BF91AF912C
S11302809F918F917F916F915F914F913F912F91AA
S11302900F900FBE0F901F901895EF92FF920F933F
S11302A01F93CF93DF937C010E94740048E160E0C8
S11302B080E40E94880048E260E08BEB0E948800A2
S11302C000E010E011C048E260E0E701C00FD11F78
S11302D088810E9488008881882349F08AE08A9571
S11302E0F1F700C00F5F1F4F0E31110564F30E9438
S11302F08400DF91CF911F910F91FF90EF900895AB
S11303009091C00095FFFCCF8093C60080E090E000
S113031008958091C0008823E4F78091C60090E09E
S11303200895CF92DF92EF92FF92CF93DF936B0108
S11303307C01D42FC22F10923701E8E3F1E080E072
S113034091E0918380839383828360E472E48FE0FD
S113035090E0A70196010E944A022150310930938E
S1130360C5002093C40088E98093C1008EE0809387
S1130370C200DD2351F0E0ECF0E080818F778083D0
S1130380E1ECF0E0808180688083CC2351F0E0ECE4
S1130390F0E080818F7B8083E1ECF0E080818064F9
S11303A08083DF91CF91FF90EF90DF90CF900895FD
S11303B01F920F920FB60F9211242F933F934F93D6
S11303C05F936F937F938F939F93AF93BF93EF93B9
S11303D0FF9380E091E00E9489019C0133272D3036
S11303E0310579F02A33310521F02830310501F542
S11303F019C091E0909337019093160180931901ED
S113040027C080913701882351F0E0911601F0E074
S1130410E75EFE4F108289E191E00E944D01109247
S1130420370116C08091160181508093160110C0C7
S113043020913701222361F0E0911601EE3140F45E
S113044091E09E0F90931601F0E0E75EFE4F8083EB
S1130450FF91EF91BF91AF919F918F917F916F9198
S11304605F914F913F912F910F900FBE0F901F906E
S1130470189520E041E060E875E280E090E00E9499
S1130480910141E060EA76E881E090E00E94530047
S11304907894FFCFA1E21A2EAA1BBB1BFD010DC04D
S11304A0AA1FBB1FEE1FFF1FA217B307E407F50720
S11304B020F0A21BB30BE40BF50B661F771F881FFC
S11304C0991F1A9469F760957095809590959B0192
S11304D0AC01BD01CF0108950F931F93CF93DF9318
S11304E0E0913A01F0913B01238121FF1BC08C0173
S11304F0D0E0C0E0F80181918F0160913A017091E0
S11305003B01DB011896ED91FC911997882331F09A
S11305100995892B79F3DFEFCFEFECCF8AE00995CA
S1130520892B19F08FEF9FEF02C08D2F9C2FDF9145
S10F0530CF911F910F910895F894FFCF14
S113053C0000000300000000800189010000455206
S109054C524F52210D0084
S9030000FC
