S00D0000536C6176652E737265631C
S11300000C9444000C9475000C94A6000C946100AC
S11300100C9461000C9461000C9461000C946100D8
S11300200C9461000C9461000C9461000C946100C8
S11300300C9461000C9461000C9461000C946100B8
S11300400C9461000C9461000C94890C0C94610074
S11300500C9461000C9461000C9461000C94610098
S11300600C94FC010C946100FC077C078207880750
S11300708E0794079F07AA07B507BB07C607D107D2
S1130080DC07F807E207ED0711241FBECFEFD8E025
S1130090DEBFCDBF17E0A0E0B1E0E4E5FDE202C0C1
S11300A005900D92A035B107D9F727E0A0E5B7E098
S11300B001C01D92A339B207E1F70E94D2100C943B
S11300C0A8160C9400009AB19B7F9AB9E9E6F0E077
S11300D090819C7F90839081892B80838CB38160F5
S11300E08CBB8DB381608DBB08951F920F920FB6A8
S11300F00F9211242F933F934F935F936F937F93AA
S11301008F939F93AF93BF93EF93FF934A9B0AC040
S11301106091600770916107809162079091630715
S11301200E94B0008CB381608CBBFF91EF91BF91B2
S1130130AF919F918F917F916F915F914F913F917B
S11301402F910F900FBE0F901F9018951F920F9232
S11301500FB60F9211240F900FBE0F901F90189599
S1130160CF92DF92EF92FF926B017C019B01AC0175
S11301700E942B04A7019601C701B6010E946103E6
S113018020E030E044E353ECC701B6010E94EB04E5
S1130190FF90EF90DF90CF90089580E090E0A4EB83
S11301A0B2E48093640790936507A0936607B093C5
S11301B0670780E090E0A4EBB2EC8093550790933E
S11301C05607A0935707B09358070E9443030E9411
S11301D003040E94CD0460E070E0CB010E94B000F3
S11301E008958F929F92AF92BF92CF92DF92EF9237
S11301F0FF92CF93C82FC0905507D0905607E09038
S11302005707F0905807A701960160916407709111
S1130210650780916607909167070E94EF1020E0C0
S113022030E048EC52E40E9461114B015C016C2FF8
S113023070E080E090E00E940B12A50194010E94FE
S1130240C0129B01AC01C701B6010E94F010CF910E
S1130250FF90EF90DF90CF90BF90AF909F908F90E2
S113026008950E94F10020E030E044E353EC0E9442
S11302702B04089520E030E044E353EC0E942B0467
S113028008950E94F1009B01AC0160E070E084E3FA
S113029093EC0E942B0408959B01AC0160E070E094
S11302A084E393EC0E942B0408950E94F10020E063
S11302B030E044E353EC0E946103089520E030E011
S11302C044E353EC0E94610308950E94F1009B01F2
S11302D0AC0160E070E084E393EC0E946103089554
S11302E09B01AC0160E070E084E393EC0E94610345
S11302F008950E94F10020E030E044E353EC0E94B2
S1130300EB04089520E030E044E353EC0E94EB0456
S1130310089560936A07880F8093BA0080916A07F2
S1130320846C8093BC0008958093BB0080E4689F34
S1130330B001112480916A07682B64686093BC0043
S11303408091BC008823E4F78091B900887F90E015
S113035050E08417950711F080E0089581E0089536
S113036020E4829FC001112490916A07892B84683C
S11303708093BC008091BC008823E4F78091B9008D
S1130380887F90E070E086179707A9F58091BB00FD
S11303908A3071F018F481111CC00AC08D3041F00C
S11303A08A33B9F481E08093890710925007089545
S11303B080918907882351F0E0915007F0E0E559D6
S11303C0F84F1082109250070E9481021092890700
S11303D0089580918907882371F0E0915007EE31E8
S11303E050F481E08E0F80935007F0E08091BB00C1
S11303F0E559F84F808308951F920F920FB60F921C
S113040011242F933F934F935F936F937F938F9315
S11304109F93AF93BF93EF93FF938091B900887F2D
S11304208038A1F028F4882381F1803641F034C06B
S1130430883AC9F0883B01F1803A71F50EC06091A9
S1130440B900687F81E00E94B00126C06091B900C4
S1130450687F81E00E94B0011FC0ECEBF0E0808176
S11304608068808319C04091B9008091BB00487FA7
S113047061E00E94940110C04091B9008091BB00DA
S1130480487F61E00E94940107C08EE091E00E94E1
S1130490B01385EC8093BC00FF91EF91BF91AF91B5
S11304A09F918F917F916F915F914F913F912F9188
S11304B00F900FBE0F901F901895682F70E09B014E
S11304C02F5F3F4F80E016C020935007F901E55994
S11304D0F84F9081492F50E0405351094A3051055B
S11304E078F4880F482F440F440F840F890F8053EA
S11304F02F5F3F4FAB014C5F5F4F4217530724F709
S11305000895E0915007F0E0E559F84F8081823476
S113051061F130F4882309F49CC0813449F0AEC001
S1130520843409F45CC0F0F1853409F475C0A6C0C4
S113053086E191E09F938F930E949A1380915007D4
S11305400E945D0280938A071F928F938EE191E04F
S11305509F938F930E949A130E9481020F900F9091
S11305600F900F900F900F90089586E291E09F9363
S11305708F930E949A13809150070E945D0280938A
S11305805B071F928F938EE191E09F938F930E945C
S11305909A130E9481020F900F900F900F900F906A
S11305A00F9008958EE291E09F938F930E949A1387
S11305B0809150070E945D02809352071F928F938F
S11305C08EE191E09F938F930E949A130E9481027F
S11305D00F900F900F900F900F900F90089586E357
S11305E091E09F938F930E949A13809150070E94E9
S11305F05D02809369071F928F938EE191E09F9330
S11306008F930E949A130E9481020F900F900F9073
S11306100F900F900F9008958EE391E09F938F9326
S11306200E949A13809150070E945D0280935107A3
S11306301F928F938EE191E09F938F930E949A1360
S11306400E9481020F900F900F900F900F900F90C7
S1130650089580918A070E94310180915B070E946E
S11306604101809152070E945501809169070E94BF
S11306706501809151070E947901089586E491E013
S11306800E94B013089580E090E0A0E8B1E4809364
S11306905C0790935D07A0935E07B0935F0783E0C8
S11306A00E948D0560915C0770915D0780915E07E3
S11306B090915F070E94170662E082E00E9489061B
S11306C008954F925F926F927F928F929F92AF9212
S11306D0BF92CF92DF92EF92FF922B013C0149012E
S11306E05A01C0905507D0905607E0905707F090F4
S11306F058079B01AC01C701B6010E945C11181692
S11307002CF1209164073091650740916607509160
S11307106707C301B2010E945C11181604F120E0BE
S113072030E044EB52E4C301B2010E94F01021E630
S11307303BE046EB5BE30E94C01220E030E040E87F
S11307405FE30E94F0102B013C0111C00F2E412CDD
S1130750512CF0E86F2EFFEB7F2EF02D08C00F2EEA
S1130760412C512CF0E86F2EFFEB7F2EF02DA501CC
S11307709401C701B6010E945C1118162CF1209156
S11307806407309165074091660750916707C5017A
S1130790B4010E945C111816E4F020E030E044EB50
S11307A052E4C501B4010E94F01021E63BE046EB9F
S11307B05BE30E94C01220E030E040E85FE30E9467
S11307C0F0109B01AC0109C020E030E040E85FEB91
S11307D004C020E030E040E85FEBC301B2010E94B6
S11307E0FE06FF90EF90DF90CF90BF90AF909F9068
S11307F08F907F906F905F904F9008958CE591E07B
S11308000E94B013089580E090E0A0EAB1E48093E0
S11308105C0790935D07A0935E07B0935F078EE03B
S11308200E94590760915C0770915D0780915E0793
S113083090915F070E94510860915C0770915D0779
S113084080915E0790915F070E943F0962E082E019
S11308500E94C30808954F925F926F927F928F9285
S11308609F92AF92BF92CF92DF92EF92FF922B01B1
S11308703C0149015A01C0905507D0905607E090B9
S11308805707F09058079B01AC01C701B6010E94BD
S11308905C1118162CF12091640730916507409182
S11308A0660750916707C301B2010E945C111816D4
S11308B004F120E030E044EB52E4C301B2010E94B1
S11308C0F01021E63BE046EB5BE30E94C01220E01F
S11308D030E040E85FE30E94F0102B013C0111C0BE
S11308E00F2E412C512CF0E86F2EFFEB7F2EF02DB4
S11308F008C00F2E412C512CF0E86F2EFFEB7F2EF9
S1130900F02DA5019401C701B6010E945C111816CF
S11309102CF120916407309165074091660750914E
S11309206707C501B4010E945C111816E4F020E0C9
S113093030E044EB52E4C501B4010E94F01021E61A
S11309403BE046EB5BE30E94C01220E030E040E86D
S11309505FE30E94F0109B01AC0109C020E030E08D
S113096040E85FEB04C020E030E040E85FEBC30107
S1130970B2010E948109FF90EF90DF90CF90BF9069
S1130980AF909F908F907F906F905F904F9008955D
S113099085E891E00E94B013089580E090E0A0E81B
S11309A0B1E480935C0790935D07A0935E07B093D6
S11309B05F0783E00E94000A60915C0770915D0705
S11309C080915E0790915F070E94BA0A60E082E01E
S11309D00E944E0B08954F925F926F927F928F9276
S11309E09F92AF92BF92CF92DF92EF92FF922B0130
S11309F03C0149015A01C0905507D0905607E09038
S1130A005707F09058079B01AC01C701B6010E943B
S1130A105C1118162CF12091640730916507409100
S1130A20660750916707C301B2010E945C11181652
S1130A3004F120E030E044EB52E4C301B2010E942F
S1130A40F01021E63BE046EB5BE30E94C01220E09D
S1130A5030E040E85FE30E94F0102B013C0111C03C
S1130A600F2E412C512CF0E86F2EFFEB7F2EF02D32
S1130A7008C00F2E412C512CF0E86F2EFFEB7F2E77
S1130A80F02DA5019401C701B6010E945C1118164E
S1130A902CF12091640730916507409166075091CD
S1130AA06707C501B4010E945C111816E4F020E048
S1130AB030E044EB52E4C501B4010E94F01021E699
S1130AC03BE046EB5BE30E94C01220E030E040E8EC
S1130AD05FE30E94F0109B01AC0109C020E030E00C
S1130AE040E85FEB04C020E030E040E85FEBC30186
S1130AF0B2010E94D60BFF90EF90DF90CF90BF9091
S1130B00AF909F908F907F906F905F904F900895DB
S1130B108EEA91E00E94B0130895CF93C82F1F92DC
S1130B208F9387ED91E09F938F930E949A1384B5DE
S1130B308C7F84BD85B5877F85BD0F900F900F9006
S1130B400F90C23089F028F4CC2341F1C13041F038
S1130B5021C0C53089F0C730B1F0C330D9F408C022
S1130B6084B5816084BD1AC084B5826084BD16C01A
S1130B7084B5836084BD12C084B5816084BD85B5AD
S1130B80886085BD0BC084B5836084BD85B58860ED
S1130B9085BD04C08CEE91E00E94B013CF910895FE
S1130BA0CF93DF93EC01DF93CF938AEF91E09F9390
S1130BB08F930E949A1385B5887F85BD0F900F90FF
S1130BC00F900F90C830D105D9F028F4209779F010
S1130BD0219791F025C0C11581E0D807C9F0C1154E
S1130BE084E0D807C9F0C034D105D1F40DC08AE03F
S1130BF092E00E94B01318C085B5816085BD14C011
S1130C0085B5826085BD10C085B5836085BD0CC087
S1130C1085B5846085BD08C085B5856085BD04C083
S1130C2087E192E00E94B013DF91CF910895CF92B3
S1130C30DF92EF92FF9210928C0710928B0720E0C4
S1130C4030E04AE754E40E9461116B017C012DEB12
S1130C5037E346E857E30E945C1118163CF081E044
S1130C6090E090938C0780938B0748C02DEB37E37B
S1130C7046E059E3C701B6010E945C1118163CF026
S1130C8088E090E090938C0780938B0737C02DEB1E
S1130C9037E346E85AE3C701B6010E945C1118160F
S1130CA03CF080E490E090938C0780938B0726C0FF
S1130CB02DEB37E346E85BE3C701B6010E945C1104
S1130CC018163CF080E091E090938C0780938B079A
S1130CD015C02DEB37E346E85CE3C701B6010E947B
S1130CE05C1118163CF080E094E090938C0780939C
S1130CF08B0704C084E492E00E94B01380918B07B8
S1130D0090918C070E94D005FF90EF90DF90CF90D8
S1130D100895CF93C62F94B59F7394BD9AB19F7BCA
S1130D209AB9813059F028F0823099F08330E1F09B
S1130D3026C088E592E00E94B01325C082E692E0C6
S1130D400E94B0138AB180648AB984B5806484BD7A
S1130D501AC08FE692E00E94B0138AB180648AB907
S1130D6084B5806884BD0FC08BE792E00E94B01305
S1130D708AB180648AB984B5806C84BD04C085E876
S1130D8092E00E94B013C13059F028F0C23099F0BB
S1130D90C330E1F026C083EA92E00E94B01325C07C
S1130DA08FEA92E00E94B0138AB180628AB984B556
S1130DB0806184BD1AC08EEB92E00E94B0138AB1A8
S1130DC080628AB984B5806284BD0FC08CEC92E0E5
S1130DD00E94B0138AB180628AB984B5806384BDED
S1130DE004C088ED92E00E94B013CF9108958F3F24
S1130DF009F087BD6F3F09F068BD08958F929F92F7
S1130E00AF92BF92CF92DF92EF92FF92CF934B01BA
S1130E105C0169017A0120E030E0A9010E945C11C3
S1130E208823C4F020E030E040E85FE3C501B4016A
S1130E300E94EF1020E030E048E851E40E94C01224
S1130E4020E030E040E651E40E94F0100E94DA1104
S1130E50C62F01C0CFEF20E030E0A901C701B601E1
S1130E600E945C118823BCF020E030E040E85FE39E
S1130E70C701B6010E94EF1020E030E048E851E4D9
S1130E800E94C01220E030E040E651E40E94F010DD
S1130E900E94DA1101C06FEF8C2F0E94F706CF91E8
S1130EA0FF90EF90DF90CF90BF90AF909F908F9086
S1130EB00895CF93C82F1F928F9388EF92E09F934A
S1130EC08F930E949A13E0E8F0E080818C7F808306
S1130ED0E1E8F0E08081877E80830F900F900F908F
S1130EE00F908C2F90E08031910508F081C0FC01B7
S1130EF0EC5CFF4F0C946E13E0E8F0E080818160BD
S1130F0080837AC0E0E8F0E080818260808374C0EE
S1130F10E0E8F0E08081836080836EC0E1E8F0E087
S1130F2080818860808368C0E0E8F0E0808181602F
S1130F308083E1E8F0E08081886080835DC0E0E840
S1130F40F0E0808182608083E1E8F0E08081886065
S1130F50808352C0E0E8F0E0808183608083E1E830
S1130F60F0E080818860808347C0E1E8F0E0808120
S1130F708061808341C0E0E8F0E08081816080830B
S1130F80E1E8F0E080818061808336C0E0E8F0E051
S1130F90808182608083E1E8F0E0808180618083E9
S1130FA02BC0E0E8F0E0808183608083E1E8F0E03A
S1130FB080818061808320C0E1E8F0E080818861E5
S1130FC080831AC0E0E8F0E0808182608083E1E8F9
S1130FD0F0E08081886180830FC0E0E8F0E08081E8
S1130FE083608083E1E8F0E080818861808304C0CD
S1130FF08CEE91E00E94B013CF910895CF93DF93CC
S1131000EC01DF93CF938AEF91E09F938F930E943B
S11310109A13E1E8F0E08081887F80830F900F903D
S11310200F900F90C830D105E9F028F4209779F09B
S1131030219791F02FC0C11581E0D807F9F0C115AF
S113104084E0D80709F1C034D10521F511C08FE03F
S113105093E00E94B01322C0E1E8F0E08081816057
S113106080831CC0E1E8F0E080818260808316C048
S1131070E1E8F0E080818360808310C0E1E8F0E083
S11310808081846080830AC0E1E8F0E0808185602B
S1131090808304C08CE193E00E94B013DF91CF9170
S11310A00895CF92DF92EF92FF921092540710921C
S11310B0530720E030E04AE754E40E9461116B01D9
S11310C07C012DEB37E346E85BE30E945C111816C4
S11310D03CF081E090E0909354078093530748C01C
S11310E02DEB37E346E05DE3C701B6010E945C11D6
S11310F018163CF088E090E09093540780935307CF
S113110037C02DEB37E346E85EE3C701B6010E9422
S11311105C1118163CF080E490E09093540780939F
S1131120530726C02DEB37E346E85FE3C701B6015A
S11311300E945C1118163CF080E091E090935407F3
S11311408093530715C02DEB37E346E850E4C701FD
S1131150B6010E945C1118163CF080E094E0909374
S113116054078093530704C084E492E00E94B013B0
S113117080915307909154070E94FE07FF90EF90CF
S1131180DF90CF900895CF93C62FE0E8F0E09081F0
S11311909F73908394B19D7F94B9813059F028F066
S11311A08230A9F0833001F12CC089E493E00E94DD
S11311B0B0132BC083E593E00E94B01384B1826026
S11311C084B9E0E8F0E08081806480831EC080E61A
S11311D093E00E94B01384B1826084B9E0E8F0E047
S11311E080818068808311C08CE693E00E94B013F4
S11311F084B1826084B9E0E8F0E08081806C80830F
S113120004C086E793E00E94B013C13059F028F07F
S1131210C230A9F0C33001F12CC08FE893E00E94E2
S1131220B0132BC089E993E00E94B01384B18460A9
S113123084B9E0E8F0E08081806180831EC086EAA2
S113124093E00E94B01384B1846084B9E0E8F0E0D4
S113125080818062808311C082EB93E00E94B0138E
S113126084B1846084B9E0E8F0E0808180638083A5
S113127004C08CEB93E00E94B013CF910895CF92F9
S1131280DF92EF92FF9220E030E04AE754E40E94BC
S113129061116B017C01209153073091540740E0A8
S11312A050E060E074E284EF90E00E944F13CA01C2
S11312B0B9010E940B12A70196010E94C01220E0FE
S11312C030E040E85FE30E94F0100E94DA1170936E
S11312D0870060938600FF90EF90DF90CF90089591
S11312E08F3F2FEF920721F090938900809388001D
S11312F06F3F8FEF780721F070938B0060938A0023
S113130008958F929F92AF92BF92CF92DF92EF9205
S1131310FF92CF93DF934B015C0169017A0120E0D6
S113132030E0A9010E945C11882344F120E030E000
S11313304AE754E4C501B4010E9461114B015C0108
S1131340209153073091540740E050E060E074E28C
S113135084EF90E00E944F13CA01B9010E940B125E
S1131360A50194010E94C01220E030E040E85FE350
S11313700E94F0100E94DA11EB0102C0CFEFDFEF00
S113138020E030E0A901C701B6010E945C11882366
S11313903CF120E030E04AE754E4C701B6010E9482
S11313A061116B017C01209153073091540740E097
S11313B050E060E074E284EF90E00E944F13CA01B1
S11313C0B9010E940B12A70196010E94C01220E0ED
S11313D030E040E85FE30E94F0100E94DA1102C09E
S11313E06FEF7FEFCE010E947009DF91CF91FF90E4
S11313F0EF90DF90CF90BF90AF909F908F90089523
S1131400CF93C82F1F928F9385ED93E09F938F9373
S11314100E949A13E0EBF0E080818C7F8083E1EB03
S1131420F0E08081877F80830F900F900F900F9062
S1131430C23099F028F4CC23B1F1C13041F02FC06F
S1131440C530B9F0C73001F1C33049F50CC0E0EB49
S1131450F0E080818160808326C0E0EBF0E0808151
S11314608260808320C0E0EBF0E080818360808331
S11314701AC0E0EBF0E0808181608083E1EBF0E072
S11314808081886080830FC0E0EBF0E0808183601E
S11314908083E1EBF0E080818860808304C08CEE7F
S11314A091E00E94B013CF910895CF93DF93EC01A4
S11314B0DF93CF938AEF91E09F938F930E949A13C7
S11314C0E1EBF0E08081887F80830F900F900F9094
S11314D00F90C032D10549F138F4C130D105C9F0BB
S11314E098F02897E1F03FC0C038D10551F120F4BD
S11314F0C034D10501F137C0C11581E0D80739F1F5
S1131500C115D44051F12FC08BEE93E00E94B0136B
S11315102EC0E1EBF0E080818160808328C0E1EBA4
S1131520F0E080818260808322C0E1EBF0E0808182
S1131530836080831CC0E1EBF0E080818460808361
S113154016C0E1EBF0E080818560808310C0E1EBA0
S1131550F0E08081866080830AC0E1EBF0E0808166
S11315608760808304C08CEF93E00E94B013DF9106
S1131570CF910895CF92DF92EF92FF9210925A0783
S11315801092590720E030E04AE754E40E946111C8
S11315906B017C012DEB37E346E857E30E945C11B5
S11315A018163CF081E090E090935A078093590715
S11315B06AC02DEB37E346E059E3C701B6010E9448
S11315C05C1118163CF088E090E090935A078093E1
S11315D0590759C02DEB37E346E05AE3C701B6017A
S11315E00E945C1118163CF080E290E090935A0738
S11315F08093590748C02DEB37E346E85AE3C70107
S1131600B6010E945C1118163CF080E490E09093BF
S11316105A078093590737C02DEB37E346E05BE365
S1131620C701B6010E945C1118163CF080E890E0F6
S113163090935A078093590726C02DEB37E346E869
S11316405BE3C701B6010E945C1118163CF080E010
S113165091E090935A078093590715C02DEB37E317
S113166046E85CE3C701B6010E945C1118163CF021
S113167080E094E090935A078093590704C084E46F
S113168092E00E94B0138091590790915A070E94EA
S1131690550AFF90EF90DF90CF900895CF93C62F17
S11316A0E0EBF0E090819F73908394B1977F94B9BD
S11316B09AB1977F9AB9813059F028F08230A9F015
S11316C0833001F12CC089E294E00E94B0132BC056
S11316D083E394E00E94B01384B1886084B9E0EBA2
S11316E0F0E08081806480831EC080E494E00E94E6
S11316F0B01384B1886084B9E0EBF0E08081806845
S1131700808311C08CE494E00E94B01384B188609B
S113171084B9E0EBF0E08081806C808304C086E5CE
S113172094E00E94B013C13059F028F0C230A9F0FF
S1131730C33001F12CC08FE694E00E94B0132BC09B
S113174089E794E00E94B0138AB188608AB9E0EB1B
S1131750F0E08081806180831EC086E894E00E946E
S1131760B0138AB188608AB9E0EBF0E080818062CE
S1131770808311C082E994E00E94B0138AB188602A
S11317808AB9E0EBF0E080818063808304C08CE957
S113179094E00E94B013CF9108958F3F11F080938D
S11317A0B3006F3F11F06093B40008958F929F923D
S11317B0AF92BF92CF92DF92EF92FF92CF934B0101
S11317C05C0169017A0120E030E0A9010E945C110A
S11317D08823C4F020E030E040E85FE3C501B401B1
S11317E00E94EF1020E030E048E851E40E94C0126B
S11317F020E030E040E651E40E94F0100E94DA114B
S1131800C62F01C0CFEF20E030E0A901C701B60127
S11318100E945C118823BCF020E030E040E85FE3E4
S1131820C701B6010E94EF1020E030E048E851E41F
S11318300E94C01220E030E040E651E40E94F01023
S11318400E94DA1101C06FEF8C2F0E94CD0BCF9153
S1131850FF90EF90DF90CF90BF90AF909F908F90CC
S113186008959091C00095FFFCCF8093C60080E05E
S113187090E008958091C0008823E4F78091C60029
S113188090E00895CF92DF92EF92FF92CF93DF938F
S11318906B017C01D42FC22F10928907EDE8F7E089
S11318A080E091E0918380839383828360E472E497
S11318B08FE090E0A70196010E942D132150310979
S11318C03093C5002093C40088E98093C1008EE062
S11318D08093C200DD2351F0E0ECF0E080818F774B
S11318E08083E1ECF0E0808180688083CC2351F038
S11318F0E0ECF0E080818F7B8083E1ECF0E080819C
S113190080648083DF91CF91FF90EF90DF90CF9040
S113191008951F920F920FB60F9211242F933F93A5
S11319204F935F936F937F938F939F93AF93BF93E3
S1131930EF93FF9380E091E00E943A0C9C013327DF
S11319402D30310569F02A33310521F02830310575
S1131950F1F417C081E0809389071092500727C0E3
S113196080918907882351F0E0915007F0E0E55910
S1131970F84F10828BE697E00E94350D109289078C
S113198016C08091500781508093500710C0209159
S11319908907222361F0E0915007EE3140F491E091
S11319A09E0F90935007F0E0E559F84F8083FF9124
S11319B0EF91BF91AF919F918F917F916F915F91C3
S11319C04F913F912F910F900FBE0F901F9018953C
S11319D085EB94E00E94B01386EE94E00E94B0136D
S11319E08EE095E00E94B01386E395E00E94B01368
S11319F084E595E09F938F930E949A136091640706
S1131A007091650780916607909167070E94D311D2
S1131A107F936F9360915507709156078091570794
S1131A20909158070E94D3117F936F9382E895E0B9
S1131A309F938F930E949A138BEA95E00E94B013B0
S1131A408FEB95E00E94B01382ED95E00E94B013F5
S1131A5086EE95E00E94B0138DB79EB708960FB638
S1131A60F8949EBF0FBE8DBF08958F929F92AF9240
S1131A70BF92CF92DF92EF92FF92CF93DF93FC015C
S1131A809081963409F44EC130F4913471F093345A
S1131A9009F449C378C3923509F463C3983609F449
S1131AA06FC39F3409F06FC34DC38181893609F434
S1131AB0ECC08D3621F08D3409F02FC173C08281C2
S1131AC0882309F458C0CF0102960E947413BC0104
S1131AD0990F880B990B0E940B126B017C012091CA
S1131AE064073091650740916607509167070E942B
S1131AF05C11882394F420E030E044EB52ECC701FD
S1131B00B6010E94BB12882344F0C0925507D092BC
S1131B105607E0925707F0925807C0905507D090A7
S1131B205607E0905707F0905807209160073091CE
S1131B3061074091620750916307C701B6010E9493
S1131B405C111816C4F4C0926007D0926107E09249
S1131B506207F0926307C701B6010E94D3117F9315
S1131B606F938BEF95E09F938F930E949A130F903E
S1131B700F900F900F9060915507709156078091C8
S1131B805707909158070E94D3117F936F9380E178
S1131B9096E09F938F930E949A130F900F900F904B
S1131BA00F90F5C28281882309F458C0CF010296B0
S1131BB00E947413BC01990F880B990B0E940B129D
S1131BC06B017C01209155073091560740915707CE
S1131BD0509158070E94BB12181694F420E030E08C
S1131BE044EB52E4C701B6010E945C11181644F09C
S1131BF0C0926407D0926507E0926607F092670787
S1131C00C0906407D0906507E0906607F09067077E
S1131C1020916007309161074091620750916307FA
S1131C20C701B6010E94BB128823C4F4C0926007A6
S1131C30D0926107E0926207F0926307C701B60190
S1131C400E94D3117F936F938BEF95E09F938F93B3
S1131C500E949A130F900F900F900F906091640759
S1131C607091650780916607909167070E94D31170
S1131C707F936F9385E296E09F938F930E949A13CC
S1131C800F900F900F900F9082C28281882371F180
S1131C90CF0102960E947413BC01990F880B990B13
S1131CA00E940B126B017C0120916407309165073F
S1131CB040916607509167070E945C111816B4F0B2
S1131CC02091550730915607409157075091580776
S1131CD0C701B6010E94BB12882344F0C09260077A
S1131CE0D0926107E0926207F09263076091600707
S1131CF07091610780916207909163070E94D311EC
S1131D007F936F938BEF95E09F938F930E949A1329
S1131D100F900F900F900F903AC28AE396E00E94C2
S1131D20B01335C28181833309F4D2C030F48133D6
S1131D3059F0823309F46AC0F1C1843309F42AC129
S1131D40853309F489C1EAC18281882309F459C021
S1131D50CF0102960E947413EC01BC01990F880B09
S1131D60990B0E940B126B017C0180905507909097
S1131D705607A0905707B0905807A50194010E94F8
S1131D80BB128823FCF020916407309165074091D1
S1131D90660750916707C701B6010E945C111816C7
S1131DA08CF0DF93CF938BE796E09F938F930E9401
S1131DB09A13C701B6010E943A010F900F900F9039
S1131DC00F90E5C160916407709165078091660783
S1131DD0909167070E94D3117F936F93C501B4015B
S1131DE00E94D3117F936F9382E996E09F938F9320
S1131DF00E949A130F900F900F900F900F900F90D6
S1131E00C6C160E081E00E94C804C1C18281882308
S1131E1009F459C0CF0102960E947413EC01BC016D
S1131E20990F880B990B0E940B126B017C01809017
S1131E30550790905607A0905707B0905807A501F2
S1131E4094010E94BB128823FCF020916407309116
S1131E5065074091660750916707C701B6010E9464
S1131E605C1118168CF0DF93CF938EEA96E09F9363
S1131E708F930E949A13C701B6010E944C010F90E0
S1131E800F900F900F9083C1609164077091650764
S1131E9080916607909167070E94D3117F936F9397
S1131EA0C501B4010E94D3117F936F9382E996E038
S1131EB09F938F930E949A130F900F900F900F90FF
S1131EC00F900F9064C161E080E00E94C8045FC17C
S1131ED08281882309F459C0CF0102960E947413A9
S1131EE0EC01BC01990F880B990B0E940B126B013A
S1131EF07C018090550790905607A0905707B090AA
S1131F005807A50194010E94BB128823FCF020917C
S1131F106407309165074091660750916707C701D0
S1131F20B6010E945C1118168CF0DF93CF9385ECF8
S1131F3096E09F938F930E949A13C701B6010E9463
S1131F405E010F900F900F900F9021C16091640774
S1131F507091650780916607909167070E94D3117D
S1131F607F936F93C501B4010E94D3117F936F9344
S1131F7082E996E09F938F930E949A130F900F909B
S1131F800F900F900F900F9002C160E081E00E94CB
S1131F90FE03FDC08281882309F459C0CF01029653
S1131FA00E947413EC01BC01990F880B990B0E94D9
S1131FB00B126B017C018090550790905607A090FE
S1131FC05707B0905807A50194010E94BB128823BB
S1131FD0FCF02091640730916507409166075091A9
S1131FE06707C701B6010E945C1118168CF0DF93D5
S1131FF0CF938CED96E09F938F930E949A13C70121
S1132000B6010E9470010F900F900F900F90BFC007
S113201060916407709165078091660790916707E6
S11320200E94D3117F936F93C501B4010E94D31111
S11320307F936F9382E996E09F938F930E949A1304
S11320400F900F900F900F900F900F90A0C061E031
S113205080E00E94FE039BC08281882309F459C05A
S1132060CF0102960E947413EC01BC01990F880BF6
S1132070990B0E940B126B017C0180905507909084
S11320805607A0905707B0905807A50194010E94E5
S1132090BB128823FCF020916407309165074091BE
S11320A0660750916707C701B6010E945C111816B4
S11320B08CF0DF93CF9383EF96E09F938F930E94EE
S11320C09A13C701B6010E9482010F900F900F90DE
S11320D00F905DC0609164077091650780916607F9
S11320E0909167070E94D3117F936F93C501B40148
S11320F00E94D3117F936F9382E996E09F938F930D
S11321000E949A130F900F900F900F900F900F90C2
S11321103EC060E081E00E94880539C08AE097E013
S11321200E94B01334C081E197E00E94B013609123
S113213055077091560780915707909158070E9450
S1132140B00025C082E297E00E94B013609164075A
S11321507091650780916607909167070E94B000AF
S113216016C083E397E00E94B013609160077091FA
S1132170610780916207909163070E94B00007C0D5
S11321800E94E80C04C08AE396E00E94B013DF9139
S1132190CF91FF90EF90DF90CF90BF90AF909F9042
S11321A08F90089583E00E94630020E041E060E89E
S11321B075E280E090E00E94420C61E080E20E94BF
S11321C08901609160077091610780916207909125
S11321D063070E94CD0078940E94E80CFFCF50580A
S11321E0BB27AA270E9407110C9481120E94731224
S11321F038F00E947A1220F039F49F3F19F426F443
S11322000C9470120EF4E095E7FB0C946A12E92F1B
S11322100E94921258F3BA1762077307840795074E
S113222020F079F4A6F50C94B4120EF4E0950B2E7C
S1132230BA2FA02D0B01B90190010C01CA01A00114
S11322401124FF27591B99F0593F50F4503E68F16F
S11322501A16F040A22F232F342F4427585FF3CFB0
S1132260469537952795A795F0405395C9F77EF481
S11322701F16BA0B620B730B840BBAF09150A1F0CA
S1132280FF0FBB1F661F771F881FC2F70EC0BA0F50
S1132290621F731F841F48F4879577956795B795D8
S11322A0F7959E3F08F0B0CF9395880F08F09927D3
S11322B0EE0F9795879508950E94461208F481E0E1
S11322C008950E9475110C9481120E947A1258F09C
S11322D00E94731240F029F45F3F29F00C946A12B3
S11322E051110C94B5120C9470120E94921268F35E
S11322F09923B1F3552391F3951B550BBB27AA27BB
S113230062177307840738F09F5F5F4F220F331FF4
S1132310441FAA1FA9F335D00E2E3AF0E0E832D0BC
S113232091505040E695001CCAF72BD0FE2F29D0BF
S1132330660F771F881FBB1F261737074807AB0791
S1132340B0E809F0BB0B802DBF01FF2793585F4F06
S11323503AF09E3F510578F00C946A120C94B51231
S11323605F3FE4F3983ED4F3869577956795B795E8
S1132370F7959F5FC9F7880F911D9695879597F9F3
S11323800895E1E0660F771F881FBB1F621773076C
S11323908407BA0720F0621B730B840BBA0BEE1F81
S11323A088F7E09508950E94DA116894B1110C94AD
S11323B0B51208950E949A1288F09F5798F0B92F89
S11323C09927B751B0F0E1F0660F771F881F991F66
S11323D01AF0BA95C9F714C0B13091F00E94B41242
S11323E0B1E008950C94B412672F782F8827B85F52
S11323F039F0B93FCCF3869577956795B395D9F7BE
S11324003EF490958095709561957F4F8F4F9F4FC7
S11324100895E89409C097FB3EF4909580957095D3
S113242061957F4F8F4F9F4F9923A9F0F92F96E91C
S1132430BB279395F695879577956795B795F11191
S1132440F8CFFAF4BB0F11F460FF1BC06F5F7F4F2E
S11324508F4F9F4F16C0882311F096E911C0772340
S113246021F09EE8872F762F05C0662371F096E849
S1132470862F70E060E02AF09A95660F771F881F18
S1132480DAF7880F9695879597F90895990F0008BC
S1132490550FAA0BE0E8FEEF16161706E807F90732
S11324A0C0F012161306E407F50798F0621B730BCD
S11324B0840B950B39F40A2661F0232B242B252B4E
S11324C021F408950A2609F4A140A6958FEF811DF1
S11324D0811D089597F99F6780E870E060E0089592
S11324E09FEF80EC089500240A9416161706180628
S11324F00906089500240A94121613061406050604
S11325000895092E0394000C11F4882352F0BB0F94
S113251040F4BF2B11F460FF04C06F5F7F4F8F4FF7
S11325209F4F089557FD9058440F551F59F05F3F32
S113253071F04795880F97FB991F61F09F3F79F0E1
S113254087950895121613061406551FF2CF469563
S1132550F1DF08C0161617061806991FF1CF8695E5
S11325607105610508940895E894BB2766277727C9
S1132570CB0197F908950E94461208F48FEF08954D
S11325800E94D3120C9481120E94731238F00E949C
S11325907A1220F0952311F00C946A120C947012A4
S11325A011240C94B5120E94921270F3959FC1F3FA
S11325B0950F50E0551F629FF001729FBB27F00DED
S11325C0B11D639FAA27F00DB11DAA1F649F662742
S11325D0B00DA11D661F829F2227B00DA11D621F91
S11325E0739FB00DA11D621F839FA00D611D221F4B
S11325F0749F3327A00D611D231F849F600D211D2F
S1132600822F762F6A2F11249F5750409AF0F1F0B1
S113261088234AF0EE0FFF1FBB1F661F771F881F1A
S113262091505040A9F79E3F510580F00C946A12D6
S11326300C94B5125F3FE4F3983ED4F386957795F6
S11326406795B795F795E7959F5FC1F7FE2B880FC0
S1132650911D9695879597F90895A1E21A2EAA1BC4
S1132660BB1BFD010DC0AA1FBB1FEE1FFF1FA2173E
S1132670B307E407F50720F0A21BB30BE40BF50B3B
S1132680661F771F881F991F1A9469F760957095C4
S1132690809590959B01AC01BD01CF010895052E55
S11326A097FB1EF400940E94661357FD07D00E9406
S11326B02D1307FC03D04EF40C94661350954095EB
S11326C0309521953F4F4F4F5F4F089590958095DA
S11326D0709561957F4F8F4F9F4F0895EE0FFF1FA9
S11326E00590F491E02D0994FC0188279927E8943A
S11326F021912032E9F3293010F02E30C8F32B3227
S113270041F02D3239F4689404C00E949213820F70
S1132710911D219120532A30C0F31EF49095819588
S11327209F4F08957AE0979F902D879F802D910D5C
S113273011240895A0E0B0E0E0EAF3E10C948116DE
S1132740AE014B5F5F4FFA0161917191AF018091CE
S11327508F07909190070E94E013E2E00C949D167D
S11327600F931F93CF93DF93E0918F07F09190071E
S1132770238121FF1BC08C01D0E0C0E0F8018191CE
S11327808F0160918F0770919007DB011896ED918E
S1132790FC911997882331F00995892B79F3DFEFA0
S11327A0CFEFECCF8AE00995892B19F08FEF9FEFDB
S11327B002C08D2F9C2FDF91CF911F910F9108950F
S11327C0ABE0B0E0E6EEF3E10C9471166C017B0132
S11327D08A01FC0117821682838181FFCCC1CE015C
S11327E001963C01F6019381F70193FD859193FFD6
S11327F081917F01882309F4BAC1853239F493FDAC
S1132800859193FF81917F01853229F4B60190E08F
S11328100E94D715E7CF912C212C312CFFE1F31521
S1132820D8F08B3279F038F4803279F08332A1F425
S1132830232D20611DC08D3261F0803369F4232D76
S1132840216016C0832D8260382EE32DE4603E2E75
S11328502AC0F32DF8601DC037FC2DC020ED280FD1
S11328602A3040F08E32B9F436FC81C1232D206425
S1132870322E19C036FE06C08AE0989E200D11241F
S1132880922E11C0EAE02E9E200D1124222EF32D4B
S1132890F0623F2E08C08C3621F4832D8068382ED8
S11328A002C0883641F4F70193FD859193FF81912D
S11328B07F018111B3CF982F9F7D9554933028F4D5
S11328C00C5F1F4F9FE399830DC0833631F083372C
S11328D071F0833509F059C021C0F80180818983E2
S11328E00E5F1F4F88248394912C530113C0280139
S11328F0F2E04F0E511CF801A080B18036FE03C0F7
S1132900692D70E002C06FEF7FEFC5010E94CC1506
S11329104C018201F32DFF773F2E16C0280122E0DF
S1132920420E511CF801A080B18036FE03C0692D0F
S113293070E002C06FEF7FEFC5010E94C1154C012A
S1132940F32DF0683F2E820133FC1BC0822D90E0F2
S113295088169906B0F4B60180E290E00E94D7157B
S11329602A94F4CFF50137FC859137FE81915F01FC
S1132970B60190E00E94D71521102A9421E0821A12
S113298091088114910471F7E8C0843611F08936F6
S113299041F5F80137FE07C060817181828193811E
S11329A00C5F1F4F08C060817181072E000C880BDB
S11329B0990B0E5F1F4FF32DFF763F2E97FF09C033
S11329C090958095709561957F4F8F4F9F4FF068DC
S11329D03F2E2AE030E0A3010E941316882E8618A9
S11329E045C0853731F4232D2F7EB22E2AE030E006
S11329F025C0932D997FB92E8F36C1F018F48835F0
S1132A0079F0B5C0803719F0883721F0B0C0E92FCC
S1132A10E061BE2EB4FE0DC0FB2DF460BF2E09C0D4
S1132A2034FE0AC0292F2660B22E06C028E030E00A
S1132A3005C020E130E002C020E132E0F801B7FE39
S1132A4007C060817181828193810C5F1F4F06C032
S1132A506081718180E090E00E5F1F4FA3010E94AE
S1132A601316882E8618FB2DFF773F2E36FE0DC0D9
S1132A70232D2E7FA22E891458F434FE0BC032FC71
S1132A8009C0832D8E7EA82E05C0B82CA32C03C0AC
S1132A90B82C01C0B92CA4FE0FC0FE01E80DF11D35
S1132AA08081803321F49A2D997EA92E09C0A2FE3B
S1132AB006C0B394B39404C08A2D867809F0B39405
S1132AC0A3FC11C0A0FE06C0B21488F4280C922CFA
S1132AD09B180EC0B21460F4B60180E290E00E942C
S1132AE0D715B394F7CFB21418F42B1802C0982C4E
S1132AF0212CA4FE10C0B60180E390E00E94D715FB
S1132B00A2FE17C0A1FC03C088E790E002C088E5DC
S1132B1090E0B6010CC08A2D867859F0A1FE02C05F
S1132B208BE201C080E2A7FC8DE2B60190E00E9436
S1132B30D715891438F4B60180E390E00E94D715C4
S1132B409A94F7CF8A94F301E80DF11D8081B601C0
S1132B5090E00E94D7158110F5CF222009F442CECF
S1132B60B60180E290E00E94D7152A94F6CFF601D0
S1132B708681978102C08FEF9FEF2B96E2E10C9440
S1132B808D16FC010590615070400110D8F78095B6
S1132B9090958E0F9F1F0895FC0161507040019025
S1132BA00110D8F7809590958E0F9F1F08950F936D
S1132BB01F93CF93DF93FB01238121FD03C08FEF8C
S1132BC09FEF2CC022FF16C0468157812481358196
S1132BD04217530744F4A081B1819D012F5F3F4FF9
S1132BE0318320838C93268137812F5F3F4F378336
S1132BF0268314C08B01EC01FB010084F185E02DD8
S1132C000995892BE1F6D80116968D919C91179719
S1132C10019617969C938E931697CE01DF91CF91D0
S1132C201F910F910895FA01AA27283051F12031FC
S1132C3081F1E8946F936E7F6E5F7F4F8F4F9F4F4C
S1132C40AF4FB1E03ED0B4E03CD0670F781F891F8E
S1132C509A1FA11D680F791F8A1F911DA11D6A0F5C
S1132C60711D811D911DA11D20D009F468943F910F
S1132C702AE0269F11243019305D3193DEF6CF010E
S1132C800895462F4770405D4193B3E00FD0C9F7D4
S1132C90F6CF462F4F70405D4A3318F0495D31FD41
S1132CA04052419302D0A9F7EACFB4E0A695979594
S1132CB0879577956795BA95C9F70097610571056A
S1132CC008959B01AC010A2E0694579547953795B4
S1132CD02795BA95C9F7620F731F841F951FA01D0E
S1132CE008952F923F924F925F926F927F928F92AC
S1132CF09F92AF92BF92CF92DF92EF92FF920F9387
S1132D001F93CF93DF93CDB7DEB7CA1BDB0B0FB690
S1132D10F894DEBF0FBECDBF09942A88398848884D
S1132D205F846E847D848C849B84AA84B984C884E3
S1132D30DF80EE80FD800C811B81AA81B981CE0FDA
S1132D40D11D0FB6F894DEBF0FBECDBFED010895BF
S1072D50F894FFCF21
S1132D540000000300000000310C3A0C000045524E
S1132D64524F52210D004465646F203120002D3EE2
S1132D742025640D0A004465646F203220004465F4
S1132D84646F203320004465646F2034200044655C
S1132D94646F203520000D0A4572726F72206465D9
S1132DA420726563657063696F6E0D0046756E63AA
S1132DB4696F6E206765745F646567726565735FC8
S1132DC4544330206E6F206465736172726F6C6C4F
S1132DD46164610D0046756E63696F6E2067657486
S1132DE45F646567726565735F544331206E6F2059
S1132DF46465736172726F6C6C6164610D00467515
S1132E046E63696F6E206765745F64656772656578
S1132E14735F544332206E6F206465736172726F02
S1132E246C6C6164610D0054494D45522030202D71
S1132E34204D6F64653A2025640D0A00496E76615D
S1132E446C6964206D6F64650D0050726573636111
S1132E546C65723A2025640D0A0054696D6572200C
S1132E6430204F46460D00496E76616C69642070CB
S1132E7472657363616C65722E2043616E277420DE
S1132E84696E697469616C697A652054494D455267
S1132E9420300D0054696D65206F7574206F6620B1
S1132EA472616E6765210D004F433041204F6666A1
S1132EB40D004F43304120546F67676C650D004F1C
S1132EC443304120436C6561720D004F433041200F
S1132ED45365740D00496E76616C6964206F757472
S1132EE4707574206D6F646520666F72204F433073
S1132EF4410D004F433042204F66660D0A0D004FCA
S1132F0443304220546F67676C650D0A0D004F43CC
S1132F14304220436C6561720D0A0D004F43304208
S1132F24205365740D0A0D00496E76616C69642042
S1132F346F7574707574206D6F646520666F72208C
S1132F444F4330420D0A0D000D0A54494D45522099
S1132F5431202D204D6F64653A2025640D0A0054F8
S1132F64696D65722031204F46460D00496E7661C5
S1132F746C6964207072657363616C65722E20439E
S1132F84616E277420696E697469616C697A65205D
S1132F9454494D455220310D004F433141204F6671
S1132FA4660D004F43314120546F67676C650D0013
S1132FB44F43314120436C6561720D004F433141ED
S1132FC4205365740D00496E76616C6964206F75D5
S1132FD47470757420666F72204F4331410D004F35
S1132FE4433142204F66660D004F43314220546FF3
S1132FF467676C650D004F43314220436C65617211
S11330040D004F433142205365740D00496E7661BF
S11330146C6964206F757470757420666F72204FC8
S11330244331420D000D0A54494D45522032202D9E
S1133034204D6F64652025640D0A0054696D657222
S11330442032206170616761646F0D00496E76619E
S11330546C6964207072657363616C65722E2043BD
S1133064616E277420696E697469616C697A65207C
S113307454494D455220320D004F433241204F668E
S1133084660D004F43324120546F67676C650D0031
S11330944F43324120436C6561720D004F4332410A
S11330A4205365740D00496E76616C6964206F75F4
S11330B47470757420666F72204F4332410D004F53
S11330C4433242204F66660D004F43324220546F10
S11330D467676C650D004F43324220436C6561722F
S11330E40D004F433242205365740D00496E7661DE
S11330F46C6964206F757470757420666F72204FE8
S11331044332420D000D0A3D3D3D3D3D3D3D3D3DB7
S11331143D3D3D3D3D3D3D3D204F7074696F6E73B3
S11331243A203D3D3D3D3D3D3D3D3D3D3D3D3D3DE7
S11331343D3D3D200D003A416D6E6E092D2D3E201E
S1133144536574206D696E696D756D206163657076
S11331547461626C65206465677265650D003A414B
S11331644D6E6E092D2D3E20536574206D61786972
S11331746D756D20616365707461626C652064654E
S1133184677265650D003A41696E6E092D2D3E2006
S113319453657420696E697469616C20646567722F
S11331A465650D003A46786E6E092D2D3E204669FC
S11331B46E67657220666C6578696F6E20646567F6
S11331C47265652C20782069732066696E67657260
S11331D40D002020202020202020205B312C355D70
S11331E42C206E6E20697320646567726565732094
S11331F45B25642C2025645D0D0A003A4309092DDE
S11332042D3E20436C6F73652068616E640D003A33
S11332144F09092D2D3E204F70656E2068616E6440
S11332240D003A5209092D2D3E2052657365742010
S113323468616E640D003A6809092D2D3E205368B7
S11332446F772068656C700D0A0D00496E697469A6
S1133254616C206465677265653A2025640D0A0013
S11332644D696E696D756D206465677265653A2094
S113327425640D0A004D6178696D756D2064656778
S11332847265653A2025640D0A0054686520636FED
S11332946D6D616E64207761736E2774207265634B
S11332A46F676E697A65642C20747279207573690A
S11332B46E67207468652068656C7020636F6D6D3B
S11332C4616E6420283A68292E0D0046696E67658C
S11332D47220312C206465677265653A2025640D7B
S11332E40A00536F6C6F20677261646F7320656E9C
S11332F474726520256420792025640D0A004669CA
S11333046E67657220322C206465677265653A20A5
S113331425640D0A0046696E67657220332C2064A7
S113332465677265653A2025640D0A0046696E670F
S1133334657220342C206465677265653A202564BF
S11333440D0A0046696E67657220352C2064656732
S11333547265653A2025640D0A004572726F720D18
S113336400436C6F73696E672068616E642E2E2E41
S11333740D004F70656E696E672068616E642E2E51
S11333842E0D00526573657420746F20696E697420
S113339469616C20706F736974696F6E2E0D00001F
S9030000FC
